S01F00004763634170706C69636174696F6E342D4354436D6F64652E73726563A4
S11300000C9466000C9470000C9470000C947000B6
S11300100C9470000C9470000C9470000C9470009C
S11300200C9470000C9470000C9470000C9470008C
S11300300C9470000C9470000C9470000C9470007C
S11300400C9470000C9470000C9470000C9470006C
S11300500C9470000C9470000C9470000C9470005C
S11300600C9470000C9470000C9470000C9470004C
S11300700C9470000C9470000C9470000C9470003C
S11300800C9470000C9470000C9470000C9470002C
S11300900C9470000C9470000C9470000C9470001C
S11300A00C9470000C9470000C9470000C9470000C
S11300B00C9470000C9470000C9470000C947000FC
S11300C00C9470000C9470000C94700011241FBEEA
S11300D0CFEFD8E0DEBFCDBF0E9472000C94B10018
S11300E00C940000CF93DF93CDB7DEB781E290E0AC
S11300F020E2FC01208382E290E022E230E0F90178
S113010020812F7DFC01208386E490E0FC01108295
S113011088E490E02DE7FC01208385E490E02BE067
S1130120FC012083000085E390E0FC018081882F9E
S113013090E084709927892BB1F385E490E0FC0169
S1130140108285E390E024E0FC01208382E290E0C9
S113015022E230E0F901308120E22327FC012083F0
S1090160D3CFF894FFCF99
S9030000FC
