S01700004763634170706C69636174696F6E342E7372656358
S11300000C94BA000C94D7000C94D7000C94D7002D
S11300100C94D7000C94D7000C94D7000C94D70000
S11300200C94D7000C94D7000C94D7000C94D700F0
S11300300C94D7000C94D7000C94D7000C94D700E0
S11300400C94D7000C94D7000C94D7000C94D700D0
S11300500C94D7000C94D7000C94D7000C94D700C0
S11300600C94D7000C94D7000C94D7000C94D700B0
S11300700C94D7000C94D7000C94D7000C94D700A0
S11300800C94D7000C94D7000C94D7000C94D70090
S11300900C94D7000C94D7000C94D7000C94D70080
S11300A00C94D7000C94D7000C94D7000C94D70070
S11300B00C94D7000C94D7000C94D7000C94D70060
S11300C00C94D7000C94D7000C94D70068067006E3
S11300D0700670067006700670067006700670066C
S11300E0700670067006700670067006700670065C
S11300F0700670067006700670067006700670064C
S11301007006700670061E063205680570063E0607
S1130110700670067006700670067006700670062B
S1130120700670067006700657067006B3057006F2
S11301307006E60570067006700670067006700696
S113014070067006700601063205410570063E060B
S113015070067006700670067006700670067006EB
S11301607006700670067006570670069B057006CA
S11301707006CE0511241FBECFEFD8E0DEBFCDBF81
S113018012E0A0E0B1E0E6E1F3E102C005900D92D7
S1130190AC3FB107D9F722E0ACEFB2E001C01D9249
S11301A0AF3FB207E1F70E94BA010C9489090C949D
S11301B00000CF93DF93CDB7DEB789EB90E0FC016D
S11301C01082000088EB90E028E4FC0120838CEB93
S11301D090E024E0FC0120830000DF91CF9108959A
S11301E0CF93DF9300D01F92CDB7DEB78B838CEB18
S11301F090E024EAFC01208380E491E09A838983DF
S11302000FC089819A8101979A83898389819A8110
S1130210892B31F48091FC0281608093FC0232C00E
S11302208CEB90E0FC018081882324F089819A8101
S1130230892B39F78BEB90E02B81FC0120838CEB2D
S113024090E024E8FC01208380E491E09A83898390
S11302500FC089819A8101979A83898389819A81C0
S1130260892B31F48091FC0282608093FC020AC0E5
S11302708CEB90E0FC018081882324F089819A81B1
S1130280892B39F70F900F900F90DF91CF9108953C
S1130290CF93DF93CDB7DEB78CEB90E024E9FC017C
S11302A020830000DF91CF910895CF93DF9300D096
S11302B01F92CDB7DEB78B838BEB90E02B81FC01D3
S11302C020838CEB90E024E8FC01208380E491E01F
S11302D09A8389830FC089819A8101979A8389833C
S11302E089819A81892B31F48091FC028460809306
S11302F0FC020AC08CEB90E0FC018081882324F08E
S113030089819A81892B39F70F900F900F90DF9193
S1130310CF910895CF93DF93CDB7DEB70E94D90074
S11303200000DF91CF910895CF93DF931F92CDB753
S1130330DEB7898389810E94F00000000F90DF916D
S1130340CF910895CF93DF931F92CDB7DEB7898302
S113035089810E94550100000F90DF91CF9108958B
S1130360CF93DF93CDB7DEB70E9448010000DF9141
S1130370CF910895CF93DF93CDB7DEB76E970FB6C5
S1130380F894DEBF0FBECDBF85E290E021E0FC0112
S1130390208384E290E0FC01108281E290E02FEF60
S11303A0FC01208385E490E026E0FC01208386E4C0
S11303B090E0FC01108280E1E1E1F1E0DE011F96B2
S11303C001900D928A95E1F70E94B50280E090E0D9
S11303D0A0E8BFE389839A83AB83BC8320E030E049
S11303E04AE755E469817A818B819C810E94F408F3
S11303F0DC01CB018D839E83AF83B88720E030E09E
S113040040E85FE36D817E818F8198850E940908B1
S113041088232CF481E090E09A8789873FC020E00C
S11304203FEF4FE757E46D817E818F8198850E946D
S1130430EF0818164CF520E030E040E251E4698101
S11304407A818B819C810E94F408DC01CB01BC0180
S1130450CD010E940E08DC01CB019A8789870FC069
S113046080E991E09C878B878B859C850197F1F7C8
S11304709C878B8789859A8501979A87898789853F
S11304809A85892B69F714C06D817E818F81988547
S11304900E940E08DC01CB019A87898789859A8599
S11304A09E878D878D859E850197F1F79E878D8721
S11304B00E948606789485E290E02FEFFC01208369
S11304C082E290E026E430E0F9012081FC012083FF
S11304D060E081E00E94E806CE010F960E94590375
S11304E060E084E00E94E80680E091E0892F8F9329
S11304F080E091E08F930E94CF040F900F9086E4E8
S113050090E0FC018081882F90E0A0E0B0E023E03F
S1130510AC01BD018AE00E94780386E490E0FC010E
S11305208081882F90E044E6489F9001499F300DD8
S11305301124C901992314F481509F4F892F990FD5
S1130540990B682F82E00E94190785E390E0FC0173
S11305508081882F90E081709927892B09F4B0CF8E
S113056085E390E0FC011082ABCFCF93DF93CDB74E
S1130570DEB70E94D9008EEA0E94860785ED0E94AC
S1130580860780E80E94860788EA0E9486078FE330
S11305900E94860783ED0E94860780E00E948607FA
S11305A080E40E9486078DE80E94860784E10E9409
S11305B0860780E20E94860780E00E94860781EA1F
S11305C00E94860788EC0E9486078AED0E948607AF
S11305D082E10E94860781E80E9486078FEC0E94D0
S11305E0860789ED0E94860781EF0E9486078BEDBE
S11305F00E94860780E40E94860784EA0E94860798
S113060086EA0E9486078FEA0E9486070E94860671
S11306100000DF91CF910895CF93DF9300D01F9214
S1130620CDB7DEB78B8319828091FE02882F90E0CC
S11306300596803891051CF48B818A3011F40E9450
S1130640D1068B818A3071F18B8180528B838B81AF
S1130650282F30E08981482F50E0C901880F991F65
S1130660880F991F820F931F840F951F8F5D9E4FD4
S1130670FC0180818A838A810E9478078091FE022E
S11306808F5F8093FE0289818F5F898389818530A2
S1130690F1F680E00E9478078091FE028F5F8093DC
S11306A0FE02000000000F900F900F90DF91CF9199
S11306B00895CF93DF9300D0CDB7DEB79A838983B3
S11306C00BC089819A819C012F5F3F4F3A83298314
S11306D0FC0180810E940C0389819A81FC01808144
S11306E0882379F700000F900F90DF91CF91089540
S11306F0FF920F931F93CF93DF93CDB7DEB761972C
S11307000FB6F894DEBF0FBECDBF8C874D875E87D2
S11307106F87788B298B19828C85823061F527C08D
S11307208989882F90E09C012150310981E090E073
S113073002C0880F991F2A95E2F79C01990F440B78
S1130740550B8D859E85AF85B88982239323A42379
S1130750B52321E0892B8A2B8B2B09F420E02983F4
S11307608981805D0E940C0389898150898B8989E4
S11307708823B1F6A0C08D859E85AF85B889892B65
S11307808A2B8B2B89F4198206C080E30E940C0308
S113079089818F5F898399818989981708F08BC033
S11307A089818A3090F387C0198251C08D859E85D6
S11307B0AF85B889892B8A2B8B2BA1F18981082FCE
S11307C010E0FD848C85282F30E040E050E08D85DA
S11307D09E85AF85B889BC01CD010E946109DA010B
S11307E0C901982F8C85989F802D11242F2D281BAB
S11307F0CE010296800F911FFC0120838C85282F47
S113080030E040E050E08D859E85AF85B889BC011D
S1130810CD010E946109DA01C9018D879E87AF87E6
S1130820B88B12C089898F3F09F442C089898B3003
S113083008F03EC08981882F90E09E012E5F3F4FD3
S1130840820F931FFC01108289818F5F89839981B4
S11308508989981708F4AACF2BC08981882F90E042
S113086001979E012E5F3F4F820F931FFC018081F1
S11308708A3068F08981882F90E001979E012E5F6D
S11308803F4F820F931FFC018081895C0CC08981DA
S1130890882F90E001979E012E5F3F4F820F931F98
S11308A0FC018081805D0E940C03898181508983D1
S11308B08981882391F6000061960FB6F894DEBF13
S11308C00FBECDBFDF91CF911F910F91FF9008957F
S11308D0CF93DF93CDB7DEB728970FB6F894DEBF7A
S11308E00FBECDBF6D837E838F8398876D817E819C
S11308F08F8198850E940E08DC01CB0189839A833D
S1130900AB83BC8389819A81AB81BC812FEFAC011D
S1130910BD018AE00E9478038EE20E940C03698183
S11309207A818B819C810E943D08DC01CB019C0172
S1130930AD016D817E818F8198850E949C07DC01C9
S1130940CB018D839E83AF83B88720E034E244E7F4
S113095059E46D817E818F8198850E94F408DC01C1
S1130960CB01BC01CD010E940E08DC01CB018983BF
S11309709A83AB83BC8389819A81AB81BC812FEF3D
S1130980AC01BD018AE00E947803000028960FB6EE
S1130990F894DEBF0FBECDBFDF91CF910895CF9302
S11309A0DF93CDB7DEB768970FB6F894DEBF0FBEFE
S11309B0CDBFCE014F96988F8F8B8D8D9E8D9A8350
S11309C0898393C189819A81FC0180818987898582
S11309D0853209F082C189819A8101969A8389833B
S11309E089819A81FC01808189878985803300F11E
S11309F089858A33E8F41A8614C08A85880F982F6B
S1130A00990F990F980F8985890F80538A87898157
S1130A109A8101969A83898389819A81FC018081D4
S1130A2089878985803338F089858A3330F303C018
S1130A308FEF8A8701C000008985882F90E0092EF6
S1130A40000CAA0BBB0B45E250E023E530E0841B0D
S1130A50950B2817390708F443C18A599F4FFC01A5
S1130A600C9483098F89988D9C012E5F3F4F388F9A
S1130A702F8BFC0180819181898789850E940C03D9
S1130A802FC18F89988D9C012E5F3F4F388F2F8BFC
S1130A90FC01808191819C838B838B819C81992330
S1130AA054F48B819C819195819591099C838B83CE
S1130AB08DE20E940C038B819C81092E000CAA0BF1
S1130AC0BB0B2A85AC01BD018AE00E94780308C1F2
S1130AD08F89988D9C012C5F3F4F388F2F8BFC01A1
S1130AE080819181A281B3818D839E83AF83B887F6
S1130AF08D819E81AF81B885BB2394F48D819E81C5
S1130B00AF81B885B095A095909581959F4FAF4FD3
S1130B10BF4F8D839E83AF83B8878DE20E940C0301
S1130B208D819E81AF81B8852A85AC01BD018AE0A3
S1130B300E947803D5C08F89988D9C012E5F3F4F0A
S1130B40388F2F8BFC01808191819C878B878B85CB
S1130B509C85CC01A0E0B0E02A85AC01BD018AE00F
S1130B600E947803BDC08F89988D9C012C5F3F4FF4
S1130B70388F2F8BFC0180819181A281B3818D8775
S1130B809E87AF87B88B8D859E85AF85B8892A856A
S1130B90AC01BD018AE00E947803A2C08F89988DC0
S1130BA09C012E5F3F4F388F2F8BFC0180819181F8
S1130BB09C878B878B859C85CC01A0E0B0E02A853F
S1130BC0AC01BD0180E10E9478038AC08F89988DB1
S1130BD09C012C5F3F4F388F2F8BFC0180819181CA
S1130BE0A281B3818D879E87AF87B88B8D859E85C3
S1130BF0AF85B8892A85AC01BD0180E10E947803E4
S1130C006FC08F89988D9C012E5F3F4F388F2F8B3B
S1130C10FC01808191819C878B878A858F3F11F4A9
S1130C2080E18A878B859C85CC01A0E0B0E02A8591
S1130C30AC01BD0182E00E94780352C08F89988D77
S1130C409C012C5F3F4F388F2F8BFC018081918159
S1130C50A281B3818D879E87AF87B88B8A858F3FAA
S1130C6011F480E18A878D859E85AF85B8892A85B0
S1130C70AC01BD0182E00E94780332C08F89988D57
S1130C809C012C5F3F4F388F2F8BFC018081918119
S1130C90A281B381898B9A8BAB8BBC8B89899A890E
S1130CA0AB89BC89BC01CD010E94680419C08F893D
S1130CB0988D9C012E5F3F4F388F2F8BFC018081D4
S1130CC091819E8B8D8B8D899E890E94590308C0CA
S1130CD085E20E940C03000003C089850E940C0376
S1130CE089819A8101969A83898389819A81FC01F9
S1130CF08081882309F066CE000068960FB6F894C8
S1130D00DEBF0FBECDBFDF91CF910895CF93DF93A8
S1130D1000D0CDB7DEB781E20E94860780E00E9452
S1130D2086078FE70E94860782E20E94860780E09A
S1130D300E94860787E00E94860788E70E945E0774
S1130D4080E40E9478071A82198208C080E00E9419
S1130D50780789819A8101969A83898389819A8106
S1130D60811594409CF381E20E94860780E00E94F2
S1130D7086078FE70E94860782E20E94860780E04A
S1130D800E94860787E00E94860788E70E945E0724
S1130D9080E40E94780700000F900F90DF91CF91BC
S1130DA00895CF93DF93CDB7DEB78091FD028F5FB7
S1130DB08093FD028091FD0287708093FD028091F3
S1130DC0FD0260E00E94E8060000DF91CF910895E3
S1130DD0CF93DF9300D0CDB7DEB789836A8389814F
S1130DE0883008F58A818823F4F089818093FD0294
S1130DF08A818093FE0281E20E9486078A810E9492
S1130E0086078FE70E94860782E20E94860789810F
S1130E100E94860787E00E94860788E70E945E0793
S1130E2080E40E94780700000F900F90DF91CF912B
S1130E300895CF93DF9300D000D0CDB7DEB78B8376
S1130E406C838B81880F8F5F8A838B81853070F5EB
S1130E508C81853658F560E08A810E94E806198203
S1130E6006C08FEF0E94780789818F5F89839981FB
S1130E708C819817B0F38C81898306C080E00E942E
S1130E80780789818F5F898389818436B8F369E61D
S1130E908A810E94E8068C81882F90E0A0E0B0E06F
S1130EA023E0AC01BD018AE00E94780300000F90AA
S1130EB00F900F900F90DF91CF910895CF93DF9310
S1130EC01F92CDB7DEB789830E948A0189810E946F
S1130ED0940100000F90DF91CF910895CF93DF9399
S1130EE0CDB7DEB70E94B0010000DF91CF91089525
S1130EF0CF93DF931F92CDB7DEB7898389810E9498
S1130F00A20100000F90DF91CF910895CF93DF935A
S1130F101F92CDB7DEB7898388E70E945E0780E021
S1130F200E94780789810E9478070E946E0700005A
S1130F300F90DF91CF9108955058BB27AA270E94A4
S1130F40B4070C94B5080E94A70838F00E94AE08B4
S1130F5020F039F49F3F19F426F40C94A4080EF4FD
S1130F60E095E7FB0C949E08E92F0E94C60858F30D
S1130F70BA17620773078407950720F079F4A6F57A
S1130F800C94E8080EF4E0950B2EBA2FA02D0B015B
S1130F90B90190010C01CA01A0011124FF27591BBA
S1130FA099F0593F50F4503E68F11A16F040A22FC0
S1130FB0232F342F4427585FF3CF46953795279531
S1130FC0A795F0405395C9F77EF41F16BA0B620B30
S1130FD0730B840BBAF09150A1F0FF0FBB1F661F77
S1130FE0771F881FC2F70EC0BA0F621F731F841FBA
S1130FF048F4879577956795B795F7959E3F08F0E0
S1131000B0CF9395880F08F09927EE0F97958795A1
S113101008950E947A0808F481E008950E94CE0899
S113102088F09F5798F0B92F9927B751B0F0E1F0A5
S1131030660F771F881F991F1AF0BA95C9F714C055
S1131040B13091F00E94E808B1E008950C94E808EA
S1131050672F782F8827B85F39F0B93FCCF386958E
S113106077956795B395D9F73EF4909580957095EB
S113107061957F4F8F4F9F4F0895E89409C097FB68
S11310803EF490958095709561957F4F8F4F9F4F5B
S11310909923A9F0F92F96E9BB279395F69587959F
S11310A077956795B795F111F8CFFAF4BB0F11F462
S11310B060FF1BC06F5F7F4F8F4F9F4F16C0882309
S11310C011F096E911C0772321F09EE8872F762F3F
S11310D005C0662371F096E8862F70E060E02AF080
S11310E09A95660F771F881FDAF7880F969587956C
S11310F097F90895990F0008550FAA0BE0E8FEEF41
S113110016161706E807F907C0F012161306E407C7
S1131110F50798F0621B730B840B950B39F40A26C0
S113112061F0232B242B252B21F408950A2609F49E
S1131130A140A6958FEF811D811D089597F99F67A2
S113114080E870E060E008959FEF80EC089500244B
S11311500A941616170618060906089500240A9418
S113116012161306140605060895092E0394000C9E
S113117011F4882352F0BB0F40F4BF2B11F460FF2D
S113118004C06F5F7F4F8F4F9F4F089557FD905856
S1131190440F551F59F05F3F71F04795880F97FB37
S11311A0991F61F09F3F79F08795089512161306F1
S11311B01406551FF2CF4695F1DF08C01616170620
S11311C01806991FF1CF8695710561050894089555
S11311D0E894BB2766277727CB0197F908950E94E7
S11311E07A0808F48FEF08950E9407090C94B50853
S11311F00E94A70838F00E94AE0820F0952311F051
S11312000C949E080C94A40811240C94E9080E94E0
S1131210C60870F3959FC1F3950F50E0551F629F68
S1131220F001729FBB27F00DB11D639FAA27F00D3B
S1131230B11DAA1F649F6627B00DA11D661F829F62
S11312402227B00DA11D621F739FB00DA11D621F47
S1131250839FA00D611D221F749F3327A00D611D64
S1131260231F849F600D211D822F762F6A2F112446
S11312709F5750409AF0F1F088234AF0EE0FFF1F79
S1131280BB1F661F771F881F91505040A9F79E3FD0
S1131290510580F00C949E080C94E9085F3FE4F338
S11312A0983ED4F3869577956795B795F795E79526
S11312B09F5FC1F7FE2B880F911D9695879597F92F
S11312C00895A1E21A2EAA1BBB1BFD010DC0AA1F83
S11312D0BB1FEE1FFF1FA217B307E407F50720F09B
S11312E0A21BB30BE40BF50B661F771F881F991F16
S11312F01A9469F760957095809590959B01AC015F
S1131300BD01CF010895EE0FFF1F0590F491E02D6C
S10913100994F894FFCFDC
S11313162075696E74385F7420636F756E743A2035
S11313260054454D504C45204D41444520454345C8
S113133600000000000000002F0000000700070066
S1131346147F147F14242A7F2A1223130864623616
S1131356495522500005030000001C2241000041AB
S1131366221C0014083E081408083E08080000A0C1
S113137660000808080808006060000020100804DF
S1131386023E5149453E00427F4000426151494672
S11313962141454B311814127F1027454545393CE8
S11313A64A4949300171090503364949493606490E
S11313B649291E003636000000563600000814225D
S11313C64100141414141400412214080201510992
S11313D606324959513E7C1211127C7F49494936DD
S11313E63E414141227F4141221C7F494949417F77
S11313F6090909013E4149497A7F0808087F0041E5
S11314067F41002040413F017F081422417F404034
S113141640407F020C027F7F0408107F3E41414119
S11314263E7F090909063E4151215E7F0919294675
S1131436464949493101017F01013F4040403F1F70
S11314462040201F3F4038403F63140814630708B8
S11314567008076151494543007F41410055AA552B
S1131466AA550041417F0004020102044040404065
S113147640000305000020545454787F48444438FF
S11314863844444420384444487F38545454180853
S11314967E09010218A4A4A47C7F080404780044ED
S11314A67D40004080847D007F1028440000417FF9
S11314B640007C041804787C0804047838444444C6
S11314C638FC2424241818242418FC7C0804040852
S11314D64854545420043F4440203C4040207C1C43
S11314E62040201C3C4030403C44281028441CA08A
S11314F6A0A07C4464544C4400107C82000000FF8D
S10F1506000000827C10000006090906A9
S9030000FC
