S02B00004763634170706C69636174696F6E352D6C616231312D696E746572727570742D616E642D74696D650A
S11300000C94BA000C9498020C94B8020C94D70087
S11300100C94D7000C94D7000C94D7000C94D70000
S11300200C94D7000C94D7000C94D7000C94D700F0
S11300300C94D7000C94D7000C94D7000C94D700E0
S11300400C94D7000C94D7000C94D7000C94D700D0
S11300500C94D7000C94D7000C94D7000C94D700C0
S11300600C94D7000C94D7000C94D7000C94D700B0
S11300700C94D7000C94D7000C94D7000C94D700A0
S11300800C94D7000C94D7000C94D7000C94D70090
S11300900C94D7000C94D7000C94D7000C94D70080
S11300A00C94D7000C94D7000C94D7000C94D70070
S11300B00C94D7000C94D7000C94D7000C94D70060
S11300C00C94D7000C94D7000C94D7008B0693069D
S11300D09306930693069306930693069306930654
S11300E09306930693069306930693069306930644
S11300F09306930693069306930693069306930634
S1130100930693069306410655058B0593066106EF
S11301109306930693069306930693069306930613
S113012093069306930693067A069306D6059306DA
S1130130930609069306930693069306930693067D
S113014093069306930624065505640593066106F3
S113015093069306930693069306930693069306D3
S113016093069306930693067A069306BE059306B2
S11301709306F10511241FBECFEFD8E0DEBFCDBF3B
S113018012E0A0E0B1E0E2EDF2E102C005900D92D0
S1130190A63FB107D9F722E0A6EFB2E001C01D9255
S11301A0AB3FB207E1F70E94BA010C9467090C94C3
S11301B00000CF93DF93CDB7DEB789EB90E0FC016D
S11301C01082000088EB90E028E4FC0120838CEB93
S11301D090E024E0FC0120830000DF91CF9108959A
S11301E0CF93DF9300D01F92CDB7DEB78B838CEB18
S11301F090E024EAFC01208380E491E09A838983DF
S11302000FC089819A8101979A83898389819A8110
S1130210892B31F48091F60281608093F60232C01A
S11302208CEB90E0FC018081882324F089819A8101
S1130230892B39F78BEB90E02B81FC0120838CEB2D
S113024090E024E8FC01208380E491E09A83898390
S11302500FC089819A8101979A83898389819A81C0
S1130260892B31F48091F60282608093F6020AC0F1
S11302708CEB90E0FC018081882324F089819A81B1
S1130280892B39F70F900F900F90DF91CF9108953C
S1130290CF93DF93CDB7DEB78CEB90E024E9FC017C
S11302A020830000DF91CF910895CF93DF9300D096
S11302B01F92CDB7DEB78B838BEB90E02B81FC01D3
S11302C020838CEB90E024E8FC01208380E491E01F
S11302D09A8389830FC089819A8101979A8389833C
S11302E089819A81892B31F48091F602846080930C
S11302F0F6020AC08CEB90E0FC018081882324F094
S113030089819A81892B39F70F900F900F90DF9193
S1130310CF910895CF93DF93CDB7DEB70E94D90074
S11303200000DF91CF910895CF93DF931F92CDB753
S1130330DEB7898389810E94F00000000F90DF916D
S1130340CF910895CF93DF931F92CDB7DEB7898302
S113035089810E94550100000F90DF91CF9108958B
S1130360CF93DF93CDB7DEB70E9448010000DF9141
S1130370CF910895CF93DF93CDB7DEB72E970FB605
S1130380F894DEBF0FBECDBF0E94D80280E090E09B
S1130390A0E8BFE389839A83AB83BC8320E030E089
S11303A04AE755E469817A818B819C810E94D20855
S11303B0DC01CB018D839E83AF83B88720E030E0DE
S11303C040E85FE36D817E818F8198850E94E70715
S11303D088232CF481E090E09A8789873FC020E04D
S11303E03FEF4FE757E46D817E818F8198850E94AE
S11303F0CD0818164CF520E030E040E251E4698164
S11304007A818B819C810E94D208DC01CB01BC01E2
S1130410CD010E94EC07DC01CB019A8789870FC0CC
S113042080E991E09C878B878B859C850197F1F708
S11304309C878B8789859A8501979A87898789857F
S11304409A85892B69F714C06D817E818F81988587
S11304500E94EC07DC01CB019A87898789859A85FC
S11304609E878D878D859E850197F1F79E878D8761
S11304700E94A90681E290E02FEFFC0120831092F4
S1130480F8021092F7028AE290E0FC0110828BE2FB
S113049090E02BE230E0F90120812C60FC01208304
S11304A08DE390E023E0FC01208389E690E02AE0DC
S11304B0FC012083789460E080E00E940B0780E0D8
S11304C091E0892F8F9380E091E08F930E94F20452
S11304D00F900F9060E084E00E940B0782E191E0AE
S11304E0892F8F9382E191E08F930E94F2040F9001
S11304F00F908091F7029091F802092E000CAA0B3C
S1130500BB0B23E0AC01BD018AE00E949B038091F8
S1130510F7029091F8020B9734F082E290E020E821
S1130520FC012083D7CF82E290E0FC011082D2CF7D
S11305301F920F9200905F000F9211248F939F934C
S1130540CF93DF93CDB7DEB78091F7029091F80295
S113055001969093F8028093F7020000DF91CF9107
S11305609F918F910F9000925F000F901F901895AC
S11305701F920F9200905F000F9211248F939F930C
S1130580CF93DF93CDB7DEB78091F7029091F80255
S113059001979093F8028093F7020000DF91CF91C6
S11305A09F918F910F9000925F000F901F9018956C
S11305B0CF93DF93CDB7DEB70E94D9008EEA0E94B5
S11305C0640785ED0E94640780E80E94640788EA56
S11305D00E9464078FE30E94640783ED0E9464070E
S11305E080E00E94640780E40E9464078DE80E9412
S11305F0640784E10E94640780E20E94640780E04B
S11306000E94640781EA0E94640788EC0E946407E0
S11306108AED0E94640782E10E94640781E80E94D7
S113062064078FEC0E94640789ED0E94640781EFE0
S11306300E9464078BED0E94640780E40E946407B3
S113064084EA0E94640786EA0E9464078FEA0E9493
S113065064070E94A9060000DF91CF910895CF930B
S1130660DF9300D01F92CDB7DEB78B8319828091C0
S1130670FA02882F90E00596803891051CF48B814E
S11306808A3011F40E94F4068B818A3071F18B81D7
S113069080528B838B81282F30E08981482F50E052
S11306A0C901880F991F880F991F820F931F840F08
S11306B0951F865E9E4FFC0180818A838A810E94F9
S11306C056078091FA028F5F8093FA0289818F5FC7
S11306D0898389818530F1F680E00E9456078091F4
S11306E0FA028F5F8093FA02000000000F900F90CF
S11306F00F90DF91CF910895CF93DF9300D0CDB7C2
S1130700DEB79A8389830BC089819A819C012F5F0C
S11307103F4F3A832983FC0180810E942F03898102
S11307209A81FC018081882379F700000F900F9053
S1130730DF91CF910895FF920F931F93CF93DF938F
S1130740CDB7DEB761970FB6F894DEBF0FBECDBF4D
S11307508C874D875E876F87788B298B19828C8570
S1130760823061F527C08989882F90E09C0121504F
S1130770310981E090E002C0880F991F2A95E2F7C1
S11307809C01990F440B550B8D859E85AF85B889C7
S113079082239323A423B52321E0892B8A2B8B2B3B
S11307A009F420E029838981805D0E942F038989CF
S11307B08150898B89898823B1F6A0C08D859E8557
S11307C0AF85B889892B8A2B8B2B89F4198206C0B3
S11307D080E30E942F0389818F5F898399818989AE
S11307E0981708F08BC089818A3090F387C01982EA
S11307F051C08D859E85AF85B889892B8A2B8B2B1B
S1130800A1F18981082F10E0FD848C85282F30E028
S113081040E050E08D859E85AF85B889BC01CD014F
S11308200E943F09DA01C901982F8C85989F802D79
S113083011242F2D281BCE010296800F911FFC013D
S113084020838C85282F30E040E050E08D859E8504
S1130850AF85B889BC01CD010E943F09DA01C90105
S11308608D879E87AF87B88B12C089898F3F09F423
S113087042C089898B3008F03EC08981882F90E07E
S11308809E012E5F3F4F820F931FFC0110828981CE
S11308908F5F898399818989981708F4AACF2BC01F
S11308A08981882F90E001979E012E5F3F4F820F30
S11308B0931FFC0180818A3068F08981882F90E041
S11308C001979E012E5F3F4F820F931FFC01808191
S11308D0895C0CC08981882F90E001979E012E5F6E
S11308E03F4F820F931FFC018081805D0E942F0384
S11308F08981815089838981882391F600006196DA
S11309000FB6F894DEBF0FBECDBFDF91CF911F911C
S11309100F91FF900895CF93DF93CDB7DEB728975B
S11309200FB6F894DEBF0FBECDBF6D837E838F8379
S113093098876D817E818F8198850E94EC07DC0108
S1130940CB0189839A83AB83BC8389819A81AB81F0
S1130950BC812FEFAC01BD018AE00E949B038EE2B3
S11309600E942F0369817A818B819C810E941B08DC
S1130970DC01CB019C01AD016D817E818F81988565
S11309800E947A07DC01CB018D839E83AF83B887F5
S113099020E034E244E759E46D817E818F819885BB
S11309A00E94D208DC01CB01BC01CD010E94EC07FE
S11309B0DC01CB0189839A83AB83BC8389819A81CF
S11309C0AB81BC812FEFAC01BD018AE00E949B0387
S11309D0000028960FB6F894DEBF0FBECDBFDF919E
S11309E0CF910895CF93DF93CDB7DEB768970FB655
S11309F0F894DEBF0FBECDBFCE014F96988F8F8B7C
S1130A008D8D9E8D9A83898393C189819A81FC01FE
S1130A10808189878985853209F082C189819A819B
S1130A2001969A83898389819A81FC0180818987CF
S1130A308985803300F189858A33E8F41A8614C0E5
S1130A408A85880F982F990F990F980F8985890F98
S1130A5080538A8789819A8101969A8389838981BF
S1130A609A81FC01808189878985803338F0898562
S1130A708A3330F303C08FEF8A8701C00000898571
S1130A80882F90E0092E000CAA0BBB0B45E250E026
S1130A9023E530E0841B950B2817390708F443C17C
S1130AA08A599F4FFC010C9461098F89988D9C0190
S1130AB02E5F3F4F388F2F8BFC0180819181898776
S1130AC089850E942F032FC18F89988D9C012E5FE9
S1130AD03F4F388F2F8BFC01808191819C838B83C6
S1130AE08B819C81992354F48B819C819195819570
S1130AF091099C838B838DE20E942F038B819C81BF
S1130B00092E000CAA0BBB0B2A85AC01BD018AE09F
S1130B100E949B0308C18F89988D9C012C5F3F4FD5
S1130B20388F2F8BFC0180819181A281B3818D83C9
S1130B309E83AF83B8878D819E81AF81B885BB23A7
S1130B4094F48D819E81AF81B885B095A0959095E0
S1130B5081959F4FAF4FBF4F8D839E83AF83B887DF
S1130B608DE20E942F038D819E81AF81B8852A85F5
S1130B70AC01BD018AE00E949B03D5C08F89988D8A
S1130B809C012E5F3F4F388F2F8BFC018081918118
S1130B909C878B878B859C85CC01A0E0B0E02A855F
S1130BA0AC01BD018AE00E949B03BDC08F89988D72
S1130BB09C012C5F3F4F388F2F8BFC0180819181EA
S1130BC0A281B3818D879E87AF87B88B8D859E85E3
S1130BD0AF85B8892A85AC01BD018AE00E949B03D8
S1130BE0A2C08F89988D9C012E5F3F4F388F2F8B29
S1130BF0FC01808191819C878B878B859C85CC01AE
S1130C00A0E0B0E02A85AC01BD0180E10E949B0315
S1130C108AC08F89988D9C012C5F3F4F388F2F8B12
S1130C20FC0180819181A281B3818D879E87AF87EA
S1130C30B88B8D859E85AF85B8892A85AC01BD01A9
S1130C4080E10E949B036FC08F89988D9C012E5F69
S1130C503F4F388F2F8BFC01808191819C878B873C
S1130C608A858F3F11F480E18A878B859C85CC012E
S1130C70A0E0B0E02A85AC01BD0182E00E949B03A4
S1130C8052C08F89988D9C012C5F3F4F388F2F8BDA
S1130C90FC0180819181A281B3818D879E87AF877A
S1130CA0B88B8A858F3F11F480E18A878D859E8574
S1130CB0AF85B8892A85AC01BD0182E00E949B03FF
S1130CC032C08F89988D9C012C5F3F4F388F2F8BBA
S1130CD0FC0180819181A281B381898B9A8BAB8B3A
S1130CE0BC8B89899A89AB89BC89BC01CD010E94DE
S1130CF08B0419C08F89988D9C012E5F3F4F388FCC
S1130D002F8BFC01808191819E8B8D8B8D899E8997
S1130D100E947C0308C085E20E942F03000003C0E8
S1130D2089850E942F0389819A8101969A838983F8
S1130D3089819A81FC018081882309F066CE0000B4
S1130D4068960FB6F894DEBF0FBECDBFDF91CF918A
S1130D500895CF93DF9300D0CDB7DEB781E20E9430
S1130D60640780E00E9464078FE70E94640782E2C0
S1130D700E94640780E00E94640787E00E94640781
S1130D8088E70E943C0780E40E9456071A82198271
S1130D9008C080E00E94560789819A8101969A834F
S1130DA0898389819A81811594409CF381E20E9410
S1130DB0640780E00E9464078FE70E94640782E270
S1130DC00E94640780E00E94640787E00E94640731
S1130DD088E70E943C0780E40E94560700000F90B9
S1130DE00F90DF91CF910895CF93DF93CDB7DEB706
S1130DF08091F9028F5F8093F9028091F9028770E4
S1130E008093F9028091F90260E00E940B070000D0
S1130E10DF91CF910895CF93DF9300D0CDB7DEB7A4
S1130E2089836A838981883008F58A818823F4F06C
S1130E3089818093F9028A818093FA0281E20E9477
S1130E4064078A810E9464078FE70E94640782E234
S1130E500E94640789810E94640787E00E946407F6
S1130E6088E70E943C0780E40E94560700000F9028
S1130E700F90DF91CF910895CF93DF931F92CDB759
S1130E80DEB789830E948A0189810E94940100004F
S1130E900F90DF91CF910895CF93DF93CDB7DEB755
S1130EA00E94B0010000DF91CF910895CF93DF93AA
S1130EB01F92CDB7DEB7898389810E94A201000009
S1130EC00F90DF91CF910895CF93DF931F92CDB709
S1130ED0DEB7898388E70E943C0780E00E945607BA
S1130EE089810E9456070E944C0700000F90DF91F1
S1130EF0CF9108955058BB27AA270E9492070C94BB
S1130F0093080E94850838F00E948C0820F039F478
S1130F109F3F19F426F40C9482080EF4E095E7FB45
S1130F200C947C08E92F0E94A40858F3BA176207AE
S1130F3073078407950720F079F4A6F50C94C60886
S1130F400EF4E0950B2EBA2FA02D0B01B9019001E0
S1130F500C01CA01A0011124FF27591B99F0593F24
S1130F6050F4503E68F11A16F040A22F232F342F6C
S1130F704427585FF3CF469537952795A795F040BA
S1130F805395C9F77EF41F16BA0B620B730B840BCF
S1130F90BAF09150A1F0FF0FBB1F661F771F881F87
S1130FA0C2F70EC0BA0F621F731F841F48F48795DF
S1130FB077956795B795F7959E3F08F0B0CF9395D1
S1130FC0880F08F09927EE0F9795879508950E944A
S1130FD0580808F481E008950E94AC0888F09F57EF
S1130FE098F0B92F9927B751B0F0E1F0660F771F49
S1130FF0881F991F1AF0BA95C9F714C0B13091F03F
S11310000E94C608B1E008950C94C608672F782F93
S11310108827B85F39F0B93FCCF386957795679503
S1131020B395D9F73EF490958095709561957F4F6F
S11310308F4F9F4F0895E89409C097FB3EF4909515
S11310408095709561957F4F8F4F9F4F9923A9F09D
S1131050F92F96E9BB279395F6958795779567952C
S1131060B795F111F8CFFAF4BB0F11F460FF1BC070
S11310706F5F7F4F8F4F9F4F16C0882311F096E903
S113108011C0772321F09EE8872F762F05C06623B1
S113109071F096E8862F70E060E02AF09A95660F6A
S11310A0771F881FDAF7880F9695879597F9089523
S11310B0990F0008550FAA0BE0E8FEEF1616170665
S11310C0E807F907C0F012161306E407F50798F0CD
S11310D0621B730B840B950B39F40A2661F0232BE6
S11310E0242B252B21F408950A2609F4A140A69562
S11310F08FEF811D811D089597F99F6780E870E047
S113110060E008959FEF80EC089500240A94161679
S1131110170618060906089500240A9412161306E1
S1131120140605060895092E0394000C11F488236F
S113113052F0BB0F40F4BF2B11F460FF04C06F5F8B
S11311407F4F8F4F9F4F089557FD9058440F551F61
S113115059F05F3F71F04795880F97FB991F61F035
S11311609F3F79F087950895121613061406551FAC
S1131170F2CF4695F1DF08C0161617061806991F18
S1131180F1CF86957105610508940895E894BB270D
S113119066277727CB0197F908950E94580808F429
S11311A08FEF08950E94E5080C9493080E94850827
S11311B038F00E948C0820F0952311F00C947C08E0
S11311C00C94820811240C94C7080E94A40870F39C
S11311D0959FC1F3950F50E0551F629FF001729FD8
S11311E0BB27F00DB11D639FAA27F00DB11DAA1FE7
S11311F0649F6627B00DA11D661F829F2227B00D34
S1131200A11D621F739FB00DA11D621F839FA00DBE
S1131210611D221F749F3327A00D611D231F849F0E
S1131220600D211D822F762F6A2F11249F57504065
S11312309AF0F1F088234AF0EE0FFF1FBB1F661FE0
S1131240771F881F91505040A9F79E3F510580F0A9
S11312500C947C080C94C7085F3FE4F3983ED4F3E5
S1131260869577956795B795F795E7959F5FC1F74D
S1131270FE2B880F911D9695879597F90895A1E205
S11312801A2EAA1BBB1BFD010DC0AA1FBB1FEE1FFC
S1131290FF1FA217B307E407F50720F0A21BB30B47
S11312A0E40BF50B661F771F881F991F1A9469F7C3
S11312B060957095809590959B01AC01BD01CF011F
S11312C00895EE0FFF1F0590F491E02D0994F89412
S10512D0FFCF4A
S11312D24C6162203131202D20416374203520205D
S11312E22000636F756E743A200000000000000055
S11312F2002F00000007000700147F147F14242A23
S11313027F2A1223130864623649552250000503CA
S11313120000001C2241000041221C0014083E0867
S11313221408083E08080000A0600008080808081D
S1131332006060000020100804023E5149453E004E
S1131342427F400042615149462141454B311814C4
S1131352127F1027454545393C4A494930017109F4
S113136205033649494936064949291E00363600DD
S113137200005636000008142241001414141414F8
S113138200412214080201510906324959513E7C96
S11313921211127C7F494949363E414141227F4123
S11313A241221C7F494949417F090909013E4149BA
S11313B2497A7F0808087F00417F41002040413F6D
S11313C2017F081422417F404040407F020C027F8B
S11313D27F0408107F3E4141413E7F090909063ED0
S11313E24151215E7F091929464649494931010182
S11313F27F01013F4040403F1F2040201F3F4038B3
S1131402403F631408146307087008076151494593
S113141243007F41410055AA55AA550041417F002E
S11314220402010204404040404000030500002041
S1131432545454787F48444438384444442038440B
S113144244487F3854545418087E09010218A4A44D
S1131452A47C7F0804047800447D40004080847D9D
S1131462007F1028440000417F40007C0418047867
S11314727C080404783844444438FC24242418188E
S1131482242418FC7C080404084854545420043FBF
S11314924440203C4040207C1C2040201C3C4030E6
S11314A2403C44281028441CA0A0A07C4464544C12
S11314B24400107C82000000FF000000827C1000C7
S10914C200060909060002
S9030000FC
