:020000020000FC
:1000000008E00EBF0FEF0DBF0FEF10E001B905B90B
:1000100014B9189B0E941300199B0E943C001A9B64
:100020000E944D00F6CF0FE302B90E94620006E085
:1000300002B90E9462000BE502B90E9462000FE45F
:1000400002B90E94620006E602B90E9462000DE653
:1000500002B90E9462000CE702B90E94620007E048
:1000600002B90E9462000FE702B90E94620007E62F
:1000700002B90E946200089507E602B90E94620078
:1000800006E002B90E9462000DE602B90E94620019
:100090000DE602B90E946200089506E702B90E94C7
:1000A000620009E702B90E94620008E302B90E94F7
:1000B000620008E302B90E9462000FE302B90E94E5
:1000C0006200089540E258EC6AEF000000006A9573
:0C00D000E1F75A95C9F74A95B1F7089579
:00000001FF
