S02100004763634170706C69636174696F6E345F54696D6572314354432E73726563E3
S11300000C9466000C9470000C9470000C947000B6
S11300100C9470000C9470000C9470000C9470009C
S11300200C9470000C9470000C9470000C9470008C
S11300300C9470000C9470000C9470000C9470007C
S11300400C9470000C9470000C9470000C9470006C
S11300500C9470000C9470000C9470000C9470005C
S11300600C9470000C9470000C9470000C9470004C
S11300700C9470000C9470000C9470000C9470003C
S11300800C9470000C9470000C9470000C9470002C
S11300900C9470000C9470000C9470000C9470001C
S11300A00C9470000C9470000C9470000C9470000C
S11300B00C9470000C9470000C9470000C947000FC
S11300C00C9470000C9470000C94700011241FBEEA
S11300D0CFEFD8E0DEBFCDBF0E9472000C94B90010
S11300E00C940000CF93DF93CDB7DEB781E290E0AC
S11300F020E2FC01208382E290E022E230E0F90178
S1130100308120E22327FC01208385E890E0FC0174
S1130110108284E890E0FC0110828BE890E02EE3EA
S1130120FC0120838AE890E020E8FC01208380E839
S113013090E0FC01108281E890E029E0FC0120833A
S1130140000086E390E0FC018081882F90E08470B9
S11301509927892BB1F380E890E0FC01108281E8B3
S113016090E0FC01108286E390E024E0FC0120830F
S1090170BDCFF894FFCF9F
S9030000FC
