:100000000C94BA000C94D7000C94D7000C94D70031
:100010000C94D7000C94D7000C94D7000C94DC01FE
:100020000C94D7000C94D7000C94D7000C94A70123
:100030000C94D7000C94D7000C94D7000C94D700E4
:100040000C94D7000C94D7000C94D7000C94D700D4
:100050000C94D7000C94D7000C94D7000C94D700C4
:100060000C94D7000C94D7000C94D7000C94D700B4
:100070000C94D7000C94D7000C94D7000C94D700A4
:100080000C94D7000C94D7000C94D7000C94D70094
:100090000C94D7000C94D7000C94D7000C94D70084
:1000A0000C94D7000C94D7000C94D7000C94D70074
:1000B0000C94D7000C94D7000C94D7000C94D70064
:1000C0000C94D7000C94D7000C94D70024052A0573
:1000D0002A052A052A052A052A052A052A052A05A8
:1000E0002A052A052A052A052A052A052A052A0598
:1000F0002A052A052A052A052A052A052A052A0588
:100100002A052A052A05FA046B048E042A050C0523
:100110002A052A052A052A052A052A052A052A0567
:100120002A052A052A052A0519052A05BB042A05D8
:100130002A05D9042A052A052A052A052A052A0599
:100140002A052A052A05E8046B0475042A050C050E
:100150002A052A052A052A052A052A052A052A0527
:100160002A052A052A052A0519052A05AC042A05A7
:100170002A05CA0411241FBECFEFD8E0DEBFCDBFD1
:1001800013E0A0E0B1E0EAE0FEE002C005900D92CD
:10019000AA30B107D9F723E0AAE0B3E001C01D926D
:1001A000A131B207E1F70E9436010C9403070C94C9
:1001B00000001092B90088E48093B80084E0809336
:1001C000BC00089594EA9093BC0020E431E009C09B
:1001D0002150310931F480910E03816080930E0328
:1001E00008959091BC0099231CF02115310581F7E9
:1001F0008093BB0084E88093BC0080E491E008C059
:10020000019731F480910E03826080930E0308956C
:100210002091BC00222314F0009791F7089584E9FF
:100220008093BC0008958093BB0084E88093BC0059
:1002300080E491E008C0019731F480910E0384605E
:1002400080930E0308952091BC00222314F00097A0
:1002500091F708950E94D90008950E94E200089540
:100260000E94130108950E940F010895CF93DF9318
:10027000CDB7DEB7A2970FB6F894DEBF0FBECDBFE5
:1002800080E1ECE0F1E0DE01119601900D928A959B
:10029000E1F782E1ECE1F1E0DE01519601900D928F
:1002A0008A95E1F70E9489028FE99FE00197F1F7B3
:1002B00000C000000E9449028BB181608BB98BB1F4
:1002C00082608BB9E8E6F0E08081886080838BB340
:1002D00088608BBBE3E7F0E080818360808382E00D
:1002E0008093B10081E0809370008FEF8093B40021
:1002F000789485B960E080E00E94D90260E081E0F6
:100300000E94D902CE0101960E943F0360E082E084
:100310000E94D902CE0141960E943F0360E084E032
:100320000E94D90280E091E09F938F930E9428045D
:1003300040910C0350910D03052E000C660B770BBA
:1003400023E08AE00E944C030F900F90D3CF1F92BE
:100350000F920FB60F9211248F938091B4008F3FAC
:1003600069F482E08093B1008AB181608AB98BB16F
:1003700081608BB983E08093B40018C08091B40091
:10038000833039F48BB18E7F8BB982E08093B400D7
:100390000DC08091B400823049F48AB18D7F8AB952
:1003A0008FEF8093B40086E08093B1008F910F901F
:1003B0000FBE0F901F9018951F920F920FB60F92BD
:1003C00011242F933F934F935F936F937F938F935A
:1003D0009F93AF93BF93EF93FF9380910A03909104
:1003E0000B03019690930B0380930A03039711F478
:1003F0001092B20080910A0390910B030497D1F4FC
:100400006091B20070E080E090E00E94E20521ED92
:1004100032E24BE55EE30E946E060E94AA057093ED
:100420000D0360930C038FEF8093B40010920B03C5
:1004300010920A03FF91EF91BF91AF919F918F911D
:100440007F916F915F914F913F912F910F900FBED0
:100450000F901F901895CF93C82F0E942A018C2FC0
:100460000E942D01CF9108950E94330108950E94AA
:1004700030010895CF93C82F88E70E942B0280E0B7
:100480000E9437028C2F0E9437020E943402CF91C3
:100490000895CF93DF9381E20E943A0280E00E94A8
:1004A0003A028FE70E943A0282E20E943A0280E01A
:1004B0000E943A0287E00E943A0288E70E942B02DB
:1004C00080E40E943702C0E0D0E004C080E00E94D7
:1004D00037022196C11584E0D807C4F381E20E9457
:1004E0003A0280E00E943A028FE70E943A0282E2DA
:1004F0000E943A0280E00E943A0287E00E943A029B
:1005000088E70E942B0280E40E943702DF91CF919E
:1005100008950E94D9008EEA0E943A0285ED0E9459
:100520003A0280E80E943A0288EA0E943A028FE387
:100530000E943A0283ED0E943A0280E00E943A0251
:1005400080E40E943A028DE80E943A0284E10E940F
:100550003A0280E20E943A0280E00E943A0281EA76
:100560000E943A0288EC0E943A028AED0E943A0206
:1005700082E10E943A0281E80E943A028FEC0E94D6
:100580003A0289ED0E943A0281EF0E943A028BED15
:100590000E943A0280E40E943A0284EA0E943A02EF
:1005A00086EA0E943A028FEA0E943A020E944902B9
:1005B0000895CF93DF93883000F56623F4F0D62FAB
:1005C000C82F80930F036093100381E20E943A02C8
:1005D0008D2F0E943A028FE70E943A0282E20E9427
:1005E0003A028C2F0E943A0287E00E943A0288E782
:1005F0000E942B0280E40E943702DF91CF91089580
:1006000080910F038F5F877080930F0360E00E94DB
:10061000D9020895CF93DF93D82F8091100390E0F3
:1006200005968038910514F4DA3011F40E94000325
:10063000DA3011F1D052C0E02D2F30E0F901EE0F89
:10064000FF1FEE0FFF1FE20FF31FE25DFE4FEC0FE7
:10065000F11D80810E943702909110039F5F90935B
:100660001003CF5FC53041F780E00E9437028091D0
:1006700010038F5F80931003DF91CF910895CF9384
:10068000DF93EC0103C021960E940A038881811147
:10069000FACFDF91CF9108954F925F926F927F9240
:1006A000AF92BF92CF92DF92EF92FF920F931F9380
:1006B000CF93DF93CDB7DEB72A970FB6F894DEBF9E
:1006C0000FBECDBFA82E6A017B01022F82E0A812C7
:1006D00020C01CC0802F90E0019741E050E002C094
:1006E000440F551F8A95E2F7052E000C660B770B19
:1006F0004C215D216E217F2181E0452B462B472B2C
:1007000009F480E0805D0E940A0301500111E2CFEC
:1007100052C0452B462B472B39F010E035C080E303
:100720000E940A031F5F01C010E0101708F043C0C9
:100730001A30A8F340C0C114D104E104F104D1F08F
:10074000BC2C4A2C512C612C712CC701B601A30181
:1007500092010E94DB06C22ED32EE42EF52EE1E09C
:10076000F0E0EC0FFD1FE10FF11DA29EB018112467
:10077000B08209C00B30E8F4E1E0F0E0EC0FFD1FBF
:10078000E10FF11D10821F5F1017A8F212C0E12FB8
:10079000F0E0319781E090E08C0F9D1FE80FF91F8A
:1007A00080818A3010F0895C01C0805D0E940A035C
:1007B00011501111ECCF2A960FB6F894DEBF0FBE80
:1007C000CDBFDF91CF911F910F91FF90EF90DF9000
:1007D000CF90BF90AF907F906F905F904F900895B3
:1007E0008F929F92AF92BF92CF92DF92EF92FF9241
:1007F0006B017C010E94B1054B015C012FEFAB0145
:10080000BC018AE00E944C038EE20E940A03C501EB
:10081000B4010E94E0059B01AC01C701B6010E9432
:100820003D0520E034E244E759E40E946E060E9450
:10083000B105AB01BC012FEF8AE00E944C03FF9091
:10084000EF90DF90CF90BF90AF909F908F900895E2
:100850004F925F926F927F92AF92BF92EF92FF9210
:100860001F93CF93DF93CDB7DEB7FE013E96E190A5
:10087000F1903F01F2C0853209F0EAC0C70101964C
:10088000D7011196EC9120ED2E0F2A3090F07C01CB
:100890001FEF15C0812F880F982F990F990F890F7F
:1008A0008E0F10ED180FBFEFEB1AFB0AD701EC917A
:1008B00002C07C0110E080ED8E0F8A3058F38E2F3D
:1008C00090E0FC01B597E435F10508F0C3C0EA59A2
:1008D000FF4F0C94FD065301B2E0AB0EB11CF301C7
:1008E00080810E940A033501B5C05301F2E0AF0ECA
:1008F000B11CD3016D907C90772034F47194619495
:1009000071088DE20E940A03A301770C660B770B36
:10091000212F8AE00E944C0335019CC05301B4E0B2
:10092000AB0EB11CF3014080518062807380772050
:100930005CF47094609450944094411C511C611C70
:10094000711C8DE20E940A03212FB301A2018AE0EB
:100950000E944C0335017EC05301F2E0AF0EB11C82
:10096000D3014D915C9160E070E0212F8AE00E94FC
:100970004C0335016FC05301B4E0AB0EB11CF30161
:100980004081518162817381212F8AE00E944C0352
:10099000350160C05301F2E0AF0EB11CD3014D919F
:1009A0005C9160E070E0212F80E10E944C033501F2
:1009B00051C05301B4E0AB0EB11CF3014081518131
:1009C00062817381212F80E10E944C03350142C076
:1009D0005301F2E0AF0EB11CD3014D915C911F3F6A
:1009E00009F410E160E070E0212F82E00E944C03E6
:1009F000350130C05301B4E0AB0EB11CF3014081AE
:100A00005181628173811F3F09F410E1212F82E03F
:100A10000E944C0335011EC05301F4E0AF0EB11C1F
:100A2000D3016D917D918D919C910E94F0033501D0
:100A300011C05301B2E0AB0EB11CF3018081918172
:100A40000E943F03350106C085E20E940A0302C0EE
:100A50000E940A03FFEFEF1AFF0AD7018C91811160
:100A60000ACFDF91CF911F91FF90EF90BF90AF9091
:100A70007F906F905F904F9008955058BB27AA27A2
:100A80000E9455050C9434060E94260638F00E94F8
:100A90002D0620F039F49F3F19F426F40C94230618
:100AA0000EF4E095E7FB0C941D06E92F0E94450625
:100AB00058F3BA17620773078407950720F079F493
:100AC000A6F50C9467060EF4E0950B2EBA2FA02D18
:100AD0000B01B90190010C01CA01A0011124FF27EB
:100AE000591B99F0593F50F4503E68F11A16F040E6
:100AF000A22F232F342F4427585FF3CF46953795E5
:100B00002795A795F0405395C9F77EF41F16BA0BA9
:100B1000620B730B840BBAF09150A1F0FF0FBB1F57
:100B2000661F771F881FC2F70EC0BA0F621F731FA0
:100B3000841F48F4879577956795B795F7959E3FFD
:100B400008F0B0CF9395880F08F09927EE0F97958E
:100B5000879508950E94B1056894B1110C946806B8
:100B600008950E944D0688F09F5798F0B92F992755
:100B7000B751B0F0E1F0660F771F881F991F1AF088
:100B8000BA95C9F714C0B13091F00E946706B1E080
:100B900008950C946706672F782F8827B85F39F07F
:100BA000B93FCCF3869577956795B395D9F73EF421
:100BB00090958095709561957F4F8F4F9F4F0895C9
:100BC000E89409C097FB3EF49095809570956195E7
:100BD0007F4F8F4F9F4F9923A9F0F92F96E9BB279D
:100BE0009395F695879577956795B795F111F8CF19
:100BF000FAF4BB0F11F460FF1BC06F5F7F4F8F4F84
:100C00009F4F16C0882311F096E911C0772321F079
:100C10009EE8872F762F05C0662371F096E8862F11
:100C200070E060E02AF09A95660F771F881FDAF768
:100C3000880F9695879597F9089597F99F6780E8AB
:100C400070E060E008959FEF80EC089500240A941E
:100C50001616170618060906089500240A94121697
:100C60001306140605060895092E0394000C11F4CA
:100C7000882352F0BB0F40F4BF2B11F460FF04C077
:100C80006F5F7F4F8F4F9F4F089557FD9058440FD0
:100C9000551F59F05F3F71F04795880F97FB991FDB
:100CA00061F09F3F79F08795089512161306140698
:100CB000551FF2CF4695F1DF08C016161706180625
:100CC000991FF1CF86957105610508940895E89400
:100CD000BB2766277727CB0197F908950E948106E5
:100CE0000C9434060E94260638F00E942D0620F04F
:100CF000952311F00C941D060C94230611240C94DA
:100D000068060E94450670F3959FC1F3950F50E069
:100D1000551F629FF001729FBB27F00DB11D639FAD
:100D2000AA27F00DB11DAA1F649F6627B00DA11D53
:100D3000661F829F2227B00DA11D621F739FB00DF9
:100D4000A11D621F839FA00D611D221F749F332769
:100D5000A00D611D231F849F600D211D822F762F02
:100D60006A2F11249F5750409AF0F1F088234AF0DF
:100D7000EE0FFF1FBB1F661F771F881F915050404B
:100D8000A9F79E3F510580F00C941D060C9468064F
:100D90005F3FE4F3983ED4F3869577956795B795D2
:100DA000F795E7959F5FC1F7FE2B880F911D9695EC
:100DB000879597F90895A1E21A2EAA1BBB1BFD0186
:100DC0000DC0AA1FBB1FEE1FFF1FA217B307E4072A
:100DD000F50720F0A21BB30BE40BF50B661F771F82
:100DE000881F991F1A9469F7609570958095909562
:100DF0009B01AC01BD01CF010895EE0FFF1F0590CF
:0A0E0000F491E02D0994F894FFCF5F
:100E0A002064697374616E63653A200054454D50DD
:100E1A004C45204D414445204543450044522E202F
:100E2A004820697320746865204D616E21000000B6
:100E3A0000000000002F00000007000700147F14C4
:100E4A007F14242A7F2A1223130864623649552202
:100E5A00500005030000001C2241000041221C0032
:100E6A0014083E081408083E08080000A06000089C
:100E7A0008080808006060000020100804023E51BB
:100E8A0049453E00427F4000426151494621414561
:100E9A004B311814127F1027454545393C4A4949B8
:100EAA003001710905033649494936064949291E5F
:100EBA00003636000000563600000814224100149D
:100ECA00141414140041221408020151090632496B
:100EDA0059513E7C1211127C7F494949363E4141A3
:100EEA0041227F4141221C7F494949417F09090921
:100EFA00013E4149497A7F0808087F00417F410045
:100F0A002040413F017F081422417F404040407FFA
:100F1A00020C027F7F0408107F3E4141413E7F0957
:100F2A000909063E4151215E7F0919294646494968
:100F3A00493101017F01013F4040403F1F204020CD
:100F4A001F3F4038403F63140814630708700807BE
:100F5A006151494543007F41410055AA55AA5500B0
:100F6A0041417F0004020102044040404040000326
:100F7A0005000020545454787F4844443838444487
:100F8A004420384444487F3854545418087E090190
:100F9A000218A4A4A47C7F0804047800447D4000BD
:100FAA004080847D007F1028440000417F40007CFF
:100FBA00041804787C080404783844444438FC242F
:100FCA0024241818242418FC7C08040408485454BF
:100FDA005420043F4440203C4040207C1C204020B8
:100FEA001C3C4030403C44281028441CA0A0A07C53
:100FFA004464544C4400107C82000000FF0000004E
:0A100A00827C1000000609090600B0
:00000001FF
