:100000000C94BA000C94D7000C94D7000C94D70031
:100010000C94D7000C944E020C94D7000C94D7008B
:100020000C94D7000C94D7000C94D7000C94D700F4
:100030000C94D7000C94D7000C94D7000C94D700E4
:100040000C94D7000C94D7000C94D7000C94D700D4
:100050000C94D7000C94D7000C94D7000C94D700C4
:100060000C94D7000C94D7000C94D7000C94D700B4
:100070000C94D7000C94D7000C94D7000C94D700A4
:100080000C94D7000C94D7000C94D7000C94D70094
:100090000C94D7000C94D7000C94D7000C94D70084
:1000A0000C94D7000C94D7000C94D7000C94D70074
:1000B0000C94D7000C94D7000C94D7000C94D70064
:1000C0000C94D7000C94D7000C94D7004007480735
:1000D00048074807480748074807480748074807A8
:1000E0004807480748074807480748074807480798
:1000F0004807480748074807480748074807480788
:10010000480748074807F6060A0640064807160744
:100110004807480748074807480748074807480767
:1001200048074807480748072F0748078B0648072E
:100130004807BE06480748074807480748074807D2
:10014000480748074807D9060A0619064807160748
:100150004807480748074807480748074807480727
:1001600048074807480748072F0748077306480706
:100170004807A60611241FBECFEFD8E0DEBFCDBFD3
:1001800013E0A0E0B1E0E8E6F4E102C005900D92D2
:10019000A234B107D9F723E0A2E4B3E001C01D9275
:1001A000A634B207E1F70E94BA010C94320A0C940B
:1001B0000000CF93DF93CDB7DEB789EB90E0FC0171
:1001C0001082000088EB90E028E4FC0120838CEB97
:1001D00090E024E0FC0120830000DF91CF9108959E
:1001E000CF93DF9300D01F92CDB7DEB78B838CEB1C
:1001F00090E024EAFC01208380E491E09A838983E3
:100200000FC089819A8101979A83898389819A8114
:10021000892B31F48091420381608093420332C084
:100220008CEB90E0FC018081882324F089819A8105
:10023000892B39F78BEB90E02B81FC0120838CEB31
:1002400090E024E8FC01208380E491E09A83898394
:100250000FC089819A8101979A83898389819A81C4
:10026000892B31F4809142038260809342030AC05B
:100270008CEB90E0FC018081882324F089819A81B5
:10028000892B39F70F900F900F90DF91CF91089540
:10029000CF93DF93CDB7DEB78CEB90E024E9FC0180
:1002A00020830000DF91CF910895CF93DF9300D09A
:1002B0001F92CDB7DEB78B838BEB90E02B81FC01D7
:1002C00020838CEB90E024E8FC01208380E491E023
:1002D0009A8389830FC089819A8101979A83898340
:1002E00089819A81892B31F48091420384608093C3
:1002F00042030AC08CEB90E0FC018081882324F04B
:1003000089819A81892B39F70F900F900F90DF9197
:10031000CF910895CF93DF93CDB7DEB70E94D90078
:100320000000DF91CF910895CF93DF931F92CDB757
:10033000DEB7898389810E94F00000000F90DF9171
:10034000CF910895CF93DF931F92CDB7DEB7898306
:1003500089810E94550100000F90DF91CF9108958F
:10036000CF93DF93CDB7DEB70E9448010000DF9145
:10037000CF910895CF93DF93CDB7DEB72E970FB609
:10038000F894DEBF0FBECDBF88E690E028E630E0EF
:10039000F90120812260FC0120838CE690E02CE6AC
:1003A00030E0F9012081206FFC0120830E948D0341
:1003B00080E090E0A0E8BFE389839A83AB83BC83AD
:1003C00020E030E04AE755E469817A818B819C81A5
:1003D0000E949D09DC01CB018D839E83AF83B8878A
:1003E00020E030E040E85FE36D817E818F81988579
:1003F0000E94B20888232CF481E090E09A878987D4
:100400003FC020E03FEF4FE757E46D817E818F8151
:1004100098850E94980918164CF520E030E040E2DB
:1004200051E469817A818B819C810E949D09DC0164
:10043000CB01BC01CD010E94B708DC01CB019A873A
:1004400089870FC080E991E09C878B878B859C858D
:100450000197F1F79C878B8789859A8501979A8701
:10046000898789859A85892B69F714C06D817E817A
:100470008F8198850E94B708DC01CB019A87898714
:1004800089859A859E878D878D859E850197F1F751
:100490009E878D870E945E077894FFCF1F920F92F0
:1004A00000905F000F9211242F933F934F935F931F
:1004B0006F937F938F939F93AF93BF93EF93FF932C
:1004C000CF93DF93CDB7DEB72E97DEBFCDBF83E2EC
:1004D00090E0FC018081807F8093430380E00E9454
:1004E000A90780914303882F90E0803B910509F490
:1004F0003FC0813B91052CF48037910509F450C031
:1005000067C0803D9105E1F0803E910509F060C033
:1005100080E091E0892F8F9380E091E08F930E949B
:10052000A7050F900F9080914303882F90E0A0E0E3
:10053000B0E028E0AC01BD0182E00E94500460C040
:1005400085E191E0892F8F9385E191E08F930E945F
:10055000A7050F900F9080914303882F90E0A0E0B3
:10056000B0E028E0AC01BD0182E00E94500448C028
:100570008AE291E0892F8F938AE291E08F930E9423
:10058000A7050F900F9080914303882F90E0A0E083
:10059000B0E028E0AC01BD0182E00E94500430C010
:1005A0008EE391E0892F8F938EE391E08F930E94E9
:1005B000A7050F900F9080914303882F90E0A0E053
:1005C000B0E028E0AC01BD0182E00E94500418C0F8
:1005D00082E591E0892F8F9382E591E08F930E94CD
:1005E000A7050F900F9080914303882F90E0A0E023
:1005F000B0E028E0AC01BD0182E00E9450040000A0
:1006000080E090E0A8E4B2E489839A83AB83BC8362
:1006100020E030E04AE755E469817A818B819C8152
:100620000E949D09DC01CB018D839E83AF83B88737
:1006300020E030E040E85FE36D817E818F81988526
:100640000E94B20888232CF481E090E09A87898781
:100650003FC020E03FEF4FE757E46D817E818F81FF
:1006600098850E94980918164CF520E030E040E289
:1006700051E469817A818B819C810E949D09DC0112
:10068000CB01BC01CD010E94B708DC01CB019A87E8
:1006900089870FC080E991E09C878B878B859C853B
:1006A0000197F1F79C878B8789859A8501979A87AF
:1006B000898789859A85892B69F714C06D817E8128
:1006C0008F8198850E94B708DC01CB019A878987C2
:1006D00089859A859E878D878D859E850197F1F7FF
:1006E0009E878D8700002E960FB6F894DEBF0FBE52
:1006F000CDBFDF91CF91FF91EF91BF91AF919F91CE
:100700008F917F916F915F914F913F912F910F90BA
:1007100000925F000F901F901895CF93DF93CDB795
:10072000DEB70E94D9008EEA0E942F0885ED0E9454
:100730002F0880E80E942F0888EA0E942F088FE384
:100740000E942F0883ED0E942F0880E00E942F084E
:1007500080E40E942F088DE80E942F0884E10E9407
:100760002F0880E20E942F0880E00E942F0881EA73
:100770000E942F0888EC0E942F088AED0E942F0803
:1007800082E10E942F0881E80E942F088FEC0E94CE
:100790002F0889ED0E942F0881EF0E942F088BED12
:1007A0000E942F0880E40E942F0884EA0E942F08EC
:1007B00086EA0E942F088FEA0E942F080E945E0797
:1007C0000000DF91CF910895CF93DF9300D01F9267
:1007D000CDB7DEB78B83198280914503882F90E0D7
:1007E0000596803891051CF48B818A3011F40E94A3
:1007F000BF078B818A3071F18B8180528B838B8113
:10080000282F30E08981482F50E0C901880F991FB7
:10081000880F991F820F931F840F951F8A599E4F2F
:10082000FC0180818A838A810E942108809145038E
:100830008F5F8093450389818F5F898389818530AC
:10084000F1F680E00E942108809145038F5F80933C
:100850004503000000000F900F900F90DF91CF91A3
:100860000895CF93DF9300D0CDB7DEB79A83898305
:100870000BC089819A819C012F5F3F4F3A83298366
:10088000FC0180810E94E40389819A81FC018081BE
:10089000882379F700000F900F90DF91CF91089592
:1008A000FF920F931F93CF93DF93CDB7DEB761977E
:1008B0000FB6F894DEBF0FBECDBF8C874D875E8725
:1008C0006F87788B298B19828C85823061F527C0E0
:1008D0008989882F90E09C012150310981E090E0C6
:1008E00002C0880F991F2A95E2F79C01990F440BCB
:1008F000550B8D859E85AF85B88982239323A423CC
:10090000B52321E0892B8A2B8B2B09F420E0298346
:100910008981805D0E94E40389898150898B89895E
:100920008823B1F6A0C08D859E85AF85B889892BB7
:100930008A2B8B2B89F4198206C080E30E94E40382
:1009400089818F5F898399818989981708F08BC085
:1009500089818A3090F387C0198251C08D859E8528
:10096000AF85B889892B8A2B8B2BA1F18981082F20
:1009700010E0FD848C85282F30E040E050E08D852C
:100980009E85AF85B889BC01CD010E940A0ADA01B3
:10099000C901982F8C85989F802D11242F2D281BFD
:1009A000CE010296800F911FFC0120838C85282F99
:1009B00030E040E050E08D859E85AF85B889BC0170
:1009C000CD010E940A0ADA01C9018D879E87AF878F
:1009D000B88B12C089898F3F09F442C089898B3056
:1009E00008F03EC08981882F90E09E012E5F3F4F26
:1009F000820F931FFC01108289818F5F8983998107
:100A00008989981708F4AACF2BC08981882F90E094
:100A100001979E012E5F3F4F820F931FFC01808143
:100A20008A3068F08981882F90E001979E012E5FBF
:100A30003F4F820F931FFC018081895C0CC089812C
:100A4000882F90E001979E012E5F3F4F820F931FEA
:100A5000FC018081805D0E94E4038981815089834B
:100A60008981882391F6000061960FB6F894DEBF65
:100A70000FBECDBFDF91CF911F910F91FF900895D1
:100A8000CF93DF93CDB7DEB728970FB6F894DEBFCC
:100A90000FBECDBF6D837E838F8398876D817E81EE
:100AA0008F8198850E94B708DC01CB0189839A83E6
:100AB000AB83BC8389819A81AB81BC812FEFAC0170
:100AC000BD018AE00E9450048EE20E94E403698125
:100AD0007A818B819C810E94E608DC01CB019C011C
:100AE000AD016D817E818F8198850E944508DC0172
:100AF000CB018D839E83AF83B88720E034E244E747
:100B000059E46D817E818F8198850E949D09DC0169
:100B1000CB01BC01CD010E94B708DC01CB01898368
:100B20009A83AB83BC8389819A81AB81BC812FEF8F
:100B3000AC01BD018AE00E945004000028960FB667
:100B4000F894DEBF0FBECDBFDF91CF910895CF9354
:100B5000DF93CDB7DEB768970FB6F894DEBF0FBE50
:100B6000CDBFCE014F96988F8F8B8D8D9E8D9A83A2
:100B7000898393C189819A81FC01808189878985D4
:100B8000853209F082C189819A8101969A8389838D
:100B900089819A81FC01808189878985803300F170
:100BA00089858A33E8F41A8614C08A85880F982FBD
:100BB000990F990F980F8985890F80538A878981AA
:100BC0009A8101969A83898389819A81FC01808127
:100BD00089878985803338F089858A3330F303C06B
:100BE0008FEF8A8701C000008985882F90E0092E49
:100BF000000CAA0BBB0B45E250E023E530E0841B60
:100C0000950B2817390708F443C18A599F4FFC01F7
:100C10000C942C0A8F89988D9C012E5F3F4F388F42
:100C20002F8BFC0180819181898789850E94E40353
:100C30002FC18F89988D9C012E5F3F4F388F2F8B4E
:100C4000FC01808191819C838B838B819C81992382
:100C500054F48B819C819195819591099C838B8320
:100C60008DE20E94E4038B819C81092E000CAA0B6B
:100C7000BB0B2A85AC01BD018AE00E94500408C16B
:100C80008F89988D9C012C5F3F4F388F2F8BFC01F3
:100C900080819181A281B3818D839E83AF83B88748
:100CA0008D819E81AF81B885BB2394F48D819E8117
:100CB000AF81B885B095A095909581959F4FAF4F26
:100CC000BF4F8D839E83AF83B8878DE20E94E4037C
:100CD0008D819E81AF81B8852A85AC01BD018AE0F6
:100CE0000E945004D5C08F89988D9C012E5F3F4F84
:100CF000388F2F8BFC01808191819C878B878B851E
:100D00009C85CC01A0E0B0E02A85AC01BD018AE061
:100D10000E945004BDC08F89988D9C012C5F3F4F6D
:100D2000388F2F8BFC0180819181A281B3818D87C7
:100D30009E87AF87B88B8D859E85AF85B8892A85BC
:100D4000AC01BD018AE00E945004A2C08F89988D39
:100D50009C012E5F3F4F388F2F8BFC01808191814A
:100D60009C878B878B859C85CC01A0E0B0E02A8591
:100D7000AC01BD0180E10E9450048AC08F89988D2A
:100D80009C012C5F3F4F388F2F8BFC01808191811C
:100D9000A281B3818D879E87AF87B88B8D859E8515
:100DA000AF85B8892A85AC01BD0180E10E9450045D
:100DB0006FC08F89988D9C012E5F3F4F388F2F8B8E
:100DC000FC01808191819C878B878A858F3F11F4FC
:100DD00080E18A878B859C85CC01A0E0B0E02A85E4
:100DE000AC01BD0182E00E94500452C08F89988DF1
:100DF0009C012C5F3F4F388F2F8BFC0180819181AC
:100E0000A281B3818D879E87AF87B88B8A858F3FFC
:100E100011F480E18A878D859E85AF85B8892A8502
:100E2000AC01BD0182E00E94500432C08F89988DD0
:100E30009C012C5F3F4F388F2F8BFC01808191816B
:100E4000A281B381898B9A8BAB8BBC8B89899A8960
:100E5000AB89BC89BC01CD010E94400519C08F89B6
:100E6000988D9C012E5F3F4F388F2F8BFC01808126
:100E700091819E8B8D8B8D899E890E94310408C043
:100E800085E20E94E403000003C089850E94E40318
:100E900089819A8101969A83898389819A81FC014B
:100EA0008081882309F066CE000068960FB6F8941A
:100EB000DEBF0FBECDBFDF91CF910895CF93DF93FB
:100EC00000D0CDB7DEB781E20E942F0880E00E94FB
:100ED0002F088FE70E942F0882E20E942F0880E0EF
:100EE0000E942F0887E00E942F0888E70E940708C9
:100EF00080E40E9421081A82198208C080E00E94C2
:100F0000210889819A8101969A83898389819A81AE
:100F1000811594409CF381E20E942F0880E00E949A
:100F20002F088FE70E942F0882E20E942F0880E09E
:100F30000E942F0887E00E942F0888E70E94070878
:100F400080E40E94210800000F900F90DF91CF9164
:100F50000895CF93DF931F92CDB7DEB78983898140
:100F6000883040F48981809344038091440360E099
:100F70000E94D60700000F90DF91CF910895CF9384
:100F8000DF93CDB7DEB7809144038F5F8093440336
:100F9000809144038770809344038091440360E010
:100FA0000E94D6070000DF91CF910895CF93DF9381
:100FB00000D0CDB7DEB789836A838981883008F590
:100FC0008A818823F4F08981809344038A81809305
:100FD000450381E20E942F088A810E942F088FE733
:100FE0000E942F0882E20E942F0889810E942F0808
:100FF00087E00E942F0888E70E94070880E40E948B
:10100000210800000F900F90DF91CF910895CF93AA
:10101000DF931F92CDB7DEB789830E948A01898151
:101020000E94940100000F90DF91CF910895CF931B
:10103000DF93CDB7DEB70E94B0010000DF91CF9102
:101040000895CF93DF931F92CDB7DEB7898389814F
:101050000E94A20100000F90DF91CF910895CF93DD
:10106000DF931F92CDB7DEB7898388E70E94070818
:1010700080E00E94210889810E9421080E941708AF
:1010800000000F90DF91CF9108955058BB27AA27F9
:101090000E945D080C945E090E94500938F00E947D
:1010A000570920F039F49F3F19F426F40C944D09A8
:1010B0000EF4E095E7FB0C944709E92F0E946F09B5
:1010C00058F3BA17620773078407950720F079F47D
:1010D000A6F50C9491090EF4E0950B2EBA2FA02DD5
:1010E0000B01B90190010C01CA01A0011124FF27D5
:1010F000591B99F0593F50F4503E68F11A16F040D0
:10110000A22F232F342F4427585FF3CF46953795CE
:101110002795A795F0405395C9F77EF41F16BA0B93
:10112000620B730B840BBAF09150A1F0FF0FBB1F41
:10113000661F771F881FC2F70EC0BA0F621F731F8A
:10114000841F48F4879577956795B795F7959E3FE7
:1011500008F0B0CF9395880F08F09927EE0F979578
:10116000879508950E94230908F481E008950E945C
:10117000770988F09F5798F0B92F9927B751B0F0A9
:10118000E1F0660F771F881F991F1AF0BA95C9F70B
:1011900014C0B13091F00E949109B1E008950C940F
:1011A0009109672F782F8827B85F39F0B93FCCF3C2
:1011B000869577956795B395D9F73EF49095809588
:1011C000709561957F4F8F4F9F4F0895E89409C0A8
:1011D00097FB3EF490958095709561957F4F8F4F6A
:1011E0009F4F9923A9F0F92F96E9BB279395F69580
:1011F000879577956795B795F111F8CFFAF4BB0FFE
:1012000011F460FF1BC06F5F7F4F8F4F9F4F16C061
:10121000882311F096E911C0772321F09EE8872FEB
:10122000762F05C0662371F096E8862F70E060E0A7
:101230002AF09A95660F771F881FDAF7880F969520
:10124000879597F90895990F0008550FAA0BE0E8C4
:10125000FEEF16161706E807F907C0F01216130678
:10126000E407F50798F0621B730B840B950B39F4B8
:101270000A2661F0232B242B252B21F408950A261E
:1012800009F4A140A6958FEF811D811D089597F95E
:101290009F6780E870E060E008959FEF80EC08951C
:1012A00000240A9416161706180609060895002445
:1012B0000A9412161306140605060895092E0394BF
:1012C000000C11F4882352F0BB0F40F4BF2B11F433
:1012D00060FF04C06F5F7F4F8F4F9F4F089557FD92
:1012E0009058440F551F59F05F3F71F04795880F94
:1012F00097FB991F61F09F3F79F08795089512162B
:1013000013061406551FF2CF4695F1DF08C01616D6
:1013100017061806991FF1CF869571056105089487
:101320000895E894BB2766277727CB0197F908959E
:101330000E94230908F48FEF08950E94B0090C94CD
:101340005E090E94500938F00E94570920F0952349
:1013500011F00C9447090C944D0911240C94920936
:101360000E946F0970F3959FC1F3950F50E0551FD0
:10137000629FF001729FBB27F00DB11D639FAA27EA
:10138000F00DB11DAA1F649F6627B00DA11D661F39
:10139000829F2227B00DA11D621F739FB00DA11D5A
:1013A000621F839FA00D611D221F749F3327A00D14
:1013B000611D231F849F600D211D822F762F6A2FB0
:1013C00011249F5750409AF0F1F088234AF0EE0F15
:1013D000FF1FBB1F661F771F881F91505040A9F742
:1013E0009E3F510580F00C9447090C9492095F3F91
:1013F000E4F3983ED4F3869577956795B795F7957E
:10140000E7959F5FC1F7FE2B880F911D96958795F5
:1014100097F90895A1E21A2EAA1BBB1BFD010DC06E
:10142000AA1FBB1FEE1FFF1FA217B307E407F50794
:1014300020F0A21BB30BE40BF50B661F771F881F70
:10144000991F1A9469F760957095809590959B0106
:10145000AC01BD01CF010895EE0FFF1F0590F4917F
:08146000E02D0994F894FFCF80
:1014680054454D504C4520454345200A4C4546546B
:101478002020200A0054454D504C45204543452026
:101488000A555020202020200A0054454D504C4534
:1014980020454345200A5249474854200A005445EC
:1014A8004D504C4520454345200A444F574E202077
:1014B8000A0054454D504C4520454345200A4345B4
:1014C8004E5445520A00000000000000002F0000A2
:1014D8000007000700147F147F14242A7F2A122390
:1014E8001308646236495522500005030000001CA9
:1014F8002241000041221C0014083E081408083E3E
:1015080008080000A06000080808080800606000DB
:101518000020100804023E5149453E00427F400029
:1015280042615149462141454B311814127F102719
:10153800454545393C4A4949300171090503364951
:10154800494936064949291E0036360000005636F4
:101558000000081422410014141414140041221429
:10156800080201510906324959513E7C1211127C78
:101578007F494949363E414141227F4141221C7FF2
:10158800494949417F090909013E4149497A7F088A
:1015980008087F00417F41002040413F017F081437
:1015A80022417F404040407F020C027F7F040810A8
:1015B8007F3E4141413E7F090909063E4151215E76
:1015C8007F09192946464949493101017F01013FEF
:1015D8004040403F1F2040201F3F4038403F631499
:1015E80008146307087008076151494543007F41A3
:1015F800410055AA55AA550041417F000402010245
:1016080004404040404000030500002054545478F2
:101618007F484444383844444420384444487F3858
:1016280054545418087E09010218A4A4A47C7F0805
:1016380004047800447D40004080847D007F1028A9
:10164800440000417F40007C041804787C080404AE
:10165800783844444438FC2424241818242418FCDA
:101668007C080404084854545420043F4440203C57
:101678004040207C1C2040201C3C4030403C4428FA
:101688001028441CA0A0A07C4464544C4400107C46
:1016980082000000FF000000827C1000000609099B
:0216A80006003A
:00000001FF
