:100000000C9466000C9470000C9470000C947000BA
:100010000C9470000C9470000C9470000C947000A0
:100020000C9470000C9470000C9470000C94700090
:100030000C9470000C9470000C9470000C94700080
:100040000C9470000C9470000C9470000C94700070
:100050000C9470000C9470000C9470000C94700060
:100060000C9470000C9470000C9470000C94700050
:100070000C9470000C9470000C9470000C94700040
:100080000C9470000C9470000C9470000C94700030
:100090000C9470000C9470000C9470000C94700020
:1000A0000C9470000C9470000C9470000C94700010
:1000B0000C9470000C9470000C9470000C94700000
:1000C0000C9470000C9470000C94700011241FBEEE
:1000D000CFEFD8E0DEBFCDBF0E94E0000C94EE0071
:1000E0000C94000016BC84E188BD8DE085BDAA9B00
:1000F000FECF15BC84E085BB089516BC87E188BDA2
:100100008DE085BDAA9BFECF15BC84E085BB08951C
:1001100016BC8AE188BD8DE085BDAA9BFECF15BCCB
:1001200084E085BB08958CEE8093850087E78093FB
:1001300084001092800083E080938100B09BFECF0A
:10014000109280001092810081E086BB0895CF93C9
:10015000DF93C0E0D0E008C084E08BB90E94720059
:100160001BB80E9493002196CE38D105ACF3DF91E5
:10017000CF910895CF93DF93C0E0D0E008C084E032
:100180008BB90E947D001BB80E9493002196CB384A
:10019000D105ACF3DF91CF910895CF93DF93C0E009
:1001A000D0E008C084E08BB90E9488001BB80E9490
:1001B00093002196CA38D105ACF3DF91CF91089511
:1001C00084E08AB98BB18B7F8BB90E94A7000E9413
:1001D000BA000E94CD000E94BA00F2CFF894FFCF7F
:00000001FF
