S01700004763634170706C69636174696F6E322E737265635A
S11300000C9466000C9470000C9470000C947000B6
S11300100C9470000C9470000C9470000C9470009C
S11300200C9470000C9470000C9470000C9470008C
S11300300C9470000C9470000C9470000C9470007C
S11300400C9470000C9470000C9470000C9470006C
S11300500C9470000C9470000C9470000C9470005C
S11300600C9470000C9470000C9470000C9470004C
S11300700C9470000C9470000C9470000C9470003C
S11300800C9470000C9470000C9470000C9470002C
S11300900C9470000C9470000C9470000C9470001C
S11300A00C9470000C9470000C9470000C9470000C
S11300B00C9470000C9470000C9470000C947000FC
S11300C00C9470000C9470000C94700011241FBEEA
S11300D0CFEFD8E0DEBFCDBF0E9472000C94AE001B
S11300E00C940000CF93DF93CDB7DEB784E290E0A9
S11300F0FC01108285E290E02FEFFC01208381E275
S113010090E02FEFFC01208383E290E0FC018081EA
S1130110882331F482E290E020E3FC012083F4CFD1
S113012083E290E0FC018081813031F482E290E04E
S113013021E3FC012083E8CF83E290E0FC0180818D
S1130140823031F482E290E022E3FC012083DCCFB0
S113015082E290E023E3FC012083D6CFF894FFCF22
S9030000FC
