S02B00004763634170706C69636174696F6E362D70696E2D6368616E67652D696E74657272757074732E737276
S11300000C94BA000C94D7000C94D7000C94D7002D
S11300100C94D7000C94D7000C94D7000C94910145
S11300200C94D7000C94D7000C94D7000C94D700F0
S11300300C94D7000C94D7000C94D7000C94D700E0
S11300400C94D7000C94D7000C94D7000C94D700D0
S11300500C94D7000C94D7000C94D7000C94D700C0
S11300600C94D7000C94D7000C94D7000C94D700B0
S11300700C94D7000C94D7000C94D7000C94D700A0
S11300800C94D7000C94D7000C94D7000C94D70090
S11300900C94D7000C94D7000C94D7000C94D70080
S11300A00C94D7000C94D7000C94D7000C94D70070
S11300B00C94D7000C94D7000C94D7000C94D70060
S11300C00C94D7000C94D7000C94D700A104A70477
S11300D0A704A704A704A704A704A704A704A704C4
S11300E0A704A704A704A704A704A704A704A704B4
S11300F0A704A704A704A704A704A704A704A704A4
S1130100A704A704A7047704E8030B04A70489043D
S1130110A704A704A704A704A704A704A704A70483
S1130120A704A704A704A7049604A7043804A704F3
S1130130A7045604A704A704A704A704A704A704B4
S1130140A704A704A7046504E803F203A704890429
S1130150A704A704A704A704A704A704A704A70443
S1130160A704A704A704A7049604A7042904A704C2
S1130170A704470411241FBECFEFD8E0DEBFCDBFD4
S113018012E0A0E0B1E0E6E5FDE002C005900D92CA
S1130190AA3FB107D9F722E0AAEFB2E001C01D924D
S11301A0AF3FB207E1F70E9436010C94A9060C9404
S11301B000001092B90088E48093B80084E0809332
S11301C0BC00089594EA9093BC0020E431E009C097
S11301D02150310931F48091FA0281608093FA024E
S11301E008959091BC0099231CF02115310581F7E5
S11301F08093BB0084E88093BC0080E491E008C055
S1130200019731F48091FA0282608093FA02089592
S11302102091BC00222314F0009791F7089584E9FB
S11302208093BC0008958093BB0084E88093BC0055
S113023080E491E008C0019731F48091FA0284606F
S11302408093FA0208952091BC00222314F00097B1
S113025091F708950E94D90008950E94E20008953C
S11302600E94130108950E940F0108950E9406023E
S113027089EF90E00197F1F700C000000E94C601E9
S11302801092FC021092FB028FEF81B914B81AB8D5
S113029085B98BB9E8E6F0E0808188608083E3E784
S11302A0F0E0808180618083789460E080E00E9447
S11302B0560280E091E09F938F930E94A5030F90D4
S11302C00F9060E084E00E9456028BE091E09F93DF
S11302D08F930E94A5034091FB025091FC02052ECE
S11302E0000C660B770B23E08AE00E94C902209180
S11302F0FB023091FC0244E6429FC001439F900DF3
S113030011240F900F90992314F481509F4F692F5B
S113031082E00E94BA048091FB029091FC0282B9AF
S1130320D0CF1F920F920FB60F9211248F939F93E9
S11303308091FB029091FC0201969093FC028093C1
S1130340FB029F918F910F900FBE0F901F901895F5
S1130350CF93C82F0E942A018C2F0E942D01CF9188
S113036008950E94330108950E9430010895CF93A7
S1130370C82F88E70E94A80180E00E94B4018C2F56
S11303800E94B4010E94B101CF910895CF93DF93ED
S113039081E20E94B70180E00E94B7018FE70E94CA
S11303A0B70182E20E94B70180E00E94B70187E0B2
S11303B00E94B70188E70E94A80180E40E94B4016A
S11303C0C0E0D0E004C080E00E94B4012196C115D1
S11303D084E0D807C4F381E20E94B70180E00E9460
S11303E0B7018FE70E94B70182E20E94B70180E063
S11303F00E94B70187E00E94B70188E70E94A80124
S113040080E40E94B401DF91CF9108950E94D90045
S11304108EEA0E94B70185ED0E94B70180E80E9430
S1130420B70188EA0E94B7018FE30E94B70183ED08
S11304300E94B70180E00E94B70180E40E94B701E6
S11304408DE80E94B70184E10E94B70180E20E9416
S1130450B70180E00E94B70181EA0E94B70188ECED
S11304600E94B7018AED0E94B70182E10E94B701A0
S113047081E80E94B7018FEC0E94B70189ED0E94C8
S1130480B70181EF0E94B7018BED0E94B70180E4B0
S11304900E94B70184EA0E94B70186EA0E94B7016C
S11304A08FEA0E94B7010E94C6010895CF93DF939B
S11304B0883000F56623F4F0D62FC82F8093FD0210
S11304C06093FE0281E20E94B7018D2F0E94B70162
S11304D08FE70E94B70182E20E94B7018C2F0E942D
S11304E0B70187E00E94B70188E70E94A80180E471
S11304F00E94B401DF91CF9108958091FD028F5F36
S113050087708093FD0260E00E9456020895CF93A5
S1130510DF93D82F8091FE0290E0059680389105F4
S113052014F4DA3011F40E947D02DA3011F1D05261
S1130530C0E02D2F30E0F901EE0FFF1FEE0FFF1F7B
S1130540E20FF31FE25EFE4FEC0FF11D80810E946B
S1130550B4019091FE029F5F9093FE02CF5FC5307D
S113056041F780E00E94B4018091FE028F5F809386
S1130570FE02DF91CF910895CF93DF93EC0103C086
S113058021960E94870288818111FACFDF91CF9151
S113059008954F925F926F927F92AF92BF92CF92E3
S11305A0DF92EF92FF920F931F93CF93DF93CDB718
S11305B0DEB72A970FB6F894DEBF0FBECDBFA82EC4
S11305C06A017B01022F82E0A81220C01CC0802F88
S11305D090E0019741E050E002C0440F551F8A9516
S11305E0E2F7052E000C660B770B4C215D216E2182
S11305F07F2181E0452B462B472B09F480E0805D69
S11306000E94870201500111E2CF52C0452B462BB4
S1130610472B39F010E035C080E30E9487021F5F4A
S113062001C010E0101708F043C01A30A8F340C00E
S1130630C114D104E104F104D1F0BC2C4A2C512C96
S1130640612C712CC701B601A30192010E9481069D
S1130650C22ED32EE42EF52EE1E0F0E0EC0FFD1FC8
S1130660E10FF11DA29EB0181124B08209C00B3015
S1130670E8F4E1E0F0E0EC0FFD1FE10FF11D108262
S11306801F5F1017A8F212C0E12FF0E0319781E04C
S113069090E08C0F9D1FE80FF91F80818A3010F0C5
S11306A0895C01C0805D0E94870211501111ECCF5A
S11306B02A960FB6F894DEBF0FBECDBFDF91CF915F
S11306C01F910F91FF90EF90DF90CF90BF90AF906C
S11306D07F906F905F904F9008958F929F92AF920A
S11306E0BF92CF92DF92EF92FF926B017C010E9446
S11306F057054B015C012FEFAB01BC018AE00E945E
S1130700C9028EE20E948702C501B4010E948605D7
S11307109B01AC01C701B6010E94EA0420E034E267
S113072044E759E40E9414060E945705AB01BC013A
S11307302FEF8AE00E94C902FF90EF90DF90CF90E4
S1130740BF90AF909F908F9008954F925F926F9259
S11307507F92AF92BF92EF92FF921F93CF93DF935A
S1130760CDB7DEB7FE013E96E190F1903F01F2C0B5
S1130770853209F0EAC0C7010196D7011196EC91C0
S113078020ED2E0F2A3090F07C011FEF15C0812F31
S1130790880F982F990F990F890F8E0F10ED180F4E
S11307A0BFEFEB1AFB0AD701EC9102C07C0110E009
S11307B080ED8E0F8A3058F38E2F90E0FC01B597B0
S11307C0E435F10508F0C3C0EA59FF4F0C94A306C1
S11307D05301B2E0AB0EB11CF30180810E94870289
S11307E03501B5C05301F2E0AF0EB11CD3016D90D9
S11307F07C90772034F47194619471088DE20E94A6
S11308008702A301770C660B770B212F8AE00E94E5
S1130810C90235019CC05301B4E0AB0EB11CF30115
S1130820408051806280738077205CF4709460947F
S113083050944094411C511C611C711C8DE20E9417
S11308408702212FB301A2018AE00E94C902350167
S11308507EC05301F2E0AF0EB11CD3014D915C9107
S113086060E070E0212F8AE00E94C90235016FC068
S11308705301B4E0AB0EB11CF3014081518162819C
S11308807381212F8AE00E94C902350160C053019F
S1130890F2E0AF0EB11CD3014D915C9160E070E0C9
S11308A0212F80E10E94C902350151C05301B4E0F7
S11308B0AB0EB11CF3014081518162817381212F00
S11308C080E10E94C902350142C05301F2E0AF0E3B
S11308D0B11CD3014D915C911F3F09F410E160E01C
S11308E070E0212F82E00E94C902350130C053011B
S11308F0B4E0AB0EB11CF30140815181628173817C
S11309001F3F09F410E1212F82E00E94C902350142
S11309101EC05301F4E0AF0EB11CD3016D917D9163
S11309208D919C910E946D03350111C05301B2E079
S1130930AB0EB11CF301808191810E94BC02350190
S113094006C085E20E94870202C00E948702FFEF70
S1130950EF1AFF0AD7018C9181110ACFDF91CF9151
S11309601F91FF90EF90BF90AF907F906F905F903A
S11309704F9008951F93CF93DF93982F990F11E011
S1130980190F853018F5653608F5D62F60E0812FEC
S11309900E945602C0E004C08FEF0E94B401CF5FF2
S11309A0CD17D0F3CD2F04C080E00E94B401CF5FF7
S11309B0C436D0F369E6812F0E9456024D2F50E0D1
S11309C060E070E023E08AE00E94C902DF91CF91E9
S11309D01F9108955058BB27AA270E9402050C9422
S11309E0DA050E94CC0538F00E94D30520F039F4D2
S11309F09F3F19F426F40C94C9050EF4E095E7FB27
S1130A000C94C305E92F0E94EB0558F3BA1762074B
S1130A1073078407950720F079F4A6F50C940D0666
S1130A200EF4E0950B2EBA2FA02D0B01B901900105
S1130A300C01CA01A0011124FF27591B99F0593F49
S1130A4050F4503E68F11A16F040A22F232F342F91
S1130A504427585FF3CF469537952795A795F040DF
S1130A605395C9F77EF41F16BA0B620B730B840BF4
S1130A70BAF09150A1F0FF0FBB1F661F771F881FAC
S1130A80C2F70EC0BA0F621F731F841F48F4879504
S1130A9077956795B795F7959E3F08F0B0CF9395F6
S1130AA0880F08F09927EE0F9795879508950E946F
S1130AB0F30588F09F5798F0B92F9927B751B0F0F4
S1130AC0E1F0660F771F881F991F1AF0BA95C9F7CE
S1130AD014C0B13091F00E940D06B1E008950C9459
S1130AE00D06672F782F8827B85F39F0B93FCCF30C
S1130AF0869577956795B395D9F73EF4909580954B
S1130B00709561957F4F8F4F9F4F0895E89409C06A
S1130B1097FB3EF490958095709561957F4F8F4F2C
S1130B209F4F9923A9F0F92F96E9BB279395F69542
S1130B30879577956795B795F111F8CFFAF4BB0FC0
S1130B4011F460FF1BC06F5F7F4F8F4F9F4F16C024
S1130B50882311F096E911C0772321F09EE8872FAE
S1130B60762F05C0662371F096E8862F70E060E06A
S1130B702AF09A95660F771F881FDAF7880F9695E3
S1130B80879597F9089597F99F6780E870E060E08A
S1130B9008959FEF80EC089500240A941616170612
S1130BA018060906089500240A941216130614065A
S1130BB005060895092E0394000C11F4882352F0BD
S1130BC0BB0F40F4BF2B11F460FF04C06F5F7F4F75
S1130BD08F4F9F4F089557FD9058440F551F59F05C
S1130BE05F3F71F04795880F97FB991F61F09F3F16
S1130BF079F087950895121613061406551FF2CF3F
S1130C004695F1DF08C0161617061806991FF1CF8E
S1130C1086957105610508940895E894BB276627B5
S1130C207727CB0197F908950E9427060C94DA05DB
S1130C300E94CC0538F00E94D30520F0952311F0D2
S1130C400C94C3050C94C90511240C940E060E943F
S1130C50EB0570F3959FC1F3950F50E0551F629F0C
S1130C60F001729FBB27F00DB11D639FAA27F00D01
S1130C70B11DAA1F649F6627B00DA11D661F829F28
S1130C802227B00DA11D621F739FB00DA11D621F0D
S1130C90839FA00D611D221F749F3327A00D611D2A
S1130CA0231F849F600D211D822F762F6A2F11240C
S1130CB09F5750409AF0F1F088234AF0EE0FFF1F3F
S1130CC0BB1F661F771F881F91505040A9F79E3F96
S1130CD0510580F00C94C3050C940E065F3FE4F3B9
S1130CE0983ED4F3869577956795B795F795E795EC
S1130CF09F5FC1F7FE2B880F911D9695879597F9F5
S1130D000895A1E21A2EAA1BBB1BFD010DC0AA1F48
S1130D10BB1FEE1FFF1FA217B307E407F50720F060
S1130D20A21BB30BE40BF50B661F771F881F991FDB
S1130D301A9469F760957095809590959B01AC0124
S1130D40BD01CF010895EE0FFF1F0590F491E02D32
S1090D500994F894FFCFA2
S1130D56474F204F574C53202020002075696E744E
S1130D66385F7420646973704E756D3A2000000014
S1130D7600000000002F00000007000700147F1485
S1130D867F14242A7F2A12231308646236495522C3
S1130D96500005030000001C2241000041221C00F3
S1130DA614083E081408083E08080000A06000085D
S1130DB608080808006060000020100804023E517C
S1130DC649453E00427F4000426151494621414522
S1130DD64B311814127F1027454545393C4A494979
S1130DE63001710905033649494936064949291E20
S1130DF6003636000000563600000814224100145E
S1130E06141414140041221408020151090632492B
S1130E1659513E7C1211127C7F494949363E414163
S1130E2641227F4141221C7F494949417F090909E1
S1130E36013E4149497A7F0808087F00417F410005
S1130E462040413F017F081422417F404040407FBB
S1130E56020C027F7F0408107F3E4141413E7F0918
S1130E660909063E4151215E7F0919294646494929
S1130E76493101017F01013F4040403F1F2040208E
S1130E861F3F4038403F631408146307087008077F
S1130E966151494543007F41410055AA55AA550071
S1130EA641417F00040201020440404040400003E7
S1130EB605000020545454787F4844443838444448
S1130EC64420384444487F3854545418087E090151
S1130ED60218A4A4A47C7F0804047800447D40007E
S1130EE64080847D007F1028440000417F40007CC0
S1130EF6041804787C080404783844444438FC24F0
S1130F0624241818242418FC7C080404084854547F
S1130F165420043F4440203C4040207C1C20402078
S1130F261C3C4030403C44281028441CA0A0A07C13
S1130F364464544C4400107C82000000FF0000000E
S10D0F46827C100000060909060071
S9030000FC
