:100000000C9466000C9470000C9470000C947000BA
:100010000C9470000C9470000C9470000C947000A0
:100020000C9470000C9470000C9470000C94700090
:100030000C9470000C9470000C9470000C94700080
:100040000C9470000C9470000C9470000C94700070
:100050000C9470000C9470000C9470000C94700060
:100060000C9470000C9470000C9470000C94700050
:100070000C9470000C9470000C9470000C94700040
:100080000C9470000C9470000C9470000C94700030
:100090000C9470000C9470000C9470000C94700020
:1000A0000C9470000C9470000C9470000C94700010
:1000B0000C9470000C9470000C9470000C94700000
:1000C0000C9470000C9470000C94700011241FBEEE
:1000D000CFEFD8E0DEBFCDBF0E9472000C94AD0020
:1000E0000C940000CF93DF93CDB7DEB781E290E0B0
:1000F00020E2FC01208382E290E022E230E0F9017C
:1001000020812F7DFC01208386E490E020E6FC0125
:10011000208385E490E021E0FC012083000085E35A
:1001200090E0FC018081882F90E081709927892BD5
:10013000B1F385E490E0FC01108285E390E021E0DA
:10014000FC01208382E290E022E230E0F90130817C
:0E01500020E22327FC012083D7CFF894FFCFB5
:00000001FF
