:100000000C9466000C9470000C9470000C947000BA
:100010000C9470000C9470000C9470000C947000A0
:100020000C9470000C9470000C9470000C94700090
:100030000C9470000C9470000C9470000C94700080
:100040000C9470000C9470000C9470000C94700070
:100050000C9470000C9470000C9470000C94700060
:100060000C9470000C9470000C9470000C94700050
:100070000C9470000C9470000C9470000C94700040
:100080000C9470000C9470000C9470000C94700030
:100090000C9470000C9470000C9470000C94700020
:1000A0000C9470000C9470000C9470000C94700010
:1000B0000C9470000C9470000C9470000C94700000
:1000C0000C9470000C9470000C94700011241FBEEE
:1000D000CFEFD8E0DEBFCDBF0E9472000C94960334
:1000E0000C940000CF93DF93CDB7DEB7EC970FB63B
:1000F000F894DEBF0FBECDBF86E089838FE78A8389
:1001000087E68B838FE38C8381E290E02FEFFC0105
:10011000208385E290E02FEFFC01208384E290E0D1
:10012000FC01108283E290E0FC018081882F90E046
:1001300081709927892B09F4EFC082E290E02C812D
:10014000FC01208380E090E0AAEFB3E489879A87DE
:10015000AB87BC8720E030E04AE755E469857A85C3
:100160008B859C850E940103DC01CB018F8F98A3B6
:10017000A9A3BAA320E030E040E85FE36F8D78A147
:1001800089A19AA10E947B0288232CF481E090E04F
:100190009CA38BA33FC020E03FEF4FE757E46F8D58
:1001A00078A189A19AA10E94FC0218164CF520E0C2
:1001B00030E040E251E469857A858B859C850E9418
:1001C0000103DC01CB01BC01CD010E948002DC01F6
:1001D000CB019CA38BA30FC080E991E09EA38DA3CC
:1001E0008DA19EA10197F1F79EA38DA38BA19CA148
:1001F00001979CA38BA38BA19CA1892B69F714C0A9
:100200006F8D78A189A19AA10E948002DC01CB01A7
:100210009CA38BA38BA19CA198A78FA38FA198A52A
:100220000197F1F798A78FA382E290E02981FC0162
:10023000208380E090E0AAEFB3E4898B9A8BAB8BAC
:10024000BC8B20E030E04AE755E469897A898B89E4
:100250009C890E940103DC01CB018D8B9E8BAF8BAF
:10026000B88F20E030E040E85FE36D897E898F89B8
:10027000988D0E947B0288232CF481E090E09A8F75
:10028000898F3FC020E03FEF4FE757E46D897E89BB
:100290008F89988D0E94FC0218164CF520E030E002
:1002A00040E251E469897A898B899C890E94010323
:1002B000DC01CB01BC01CD010E948002DC01CB013D
:1002C0009A8F898F0FC080E991E09C8F8B8F8B8DE7
:1002D0009C8D0197F1F79C8F8B8F898D9A8D01975B
:1002E0009A8F898F898D9A8D892B69F703C16D89C2
:1002F0007E898F89988D0E948002DC01CB019A8FC4
:10030000898F898D9A8D9E8F8D8F8D8D9E8D019772
:10031000F1F79E8F8D8F06CF82E290E02B81FC015A
:10032000208380E090E0AAEFB3E48D879E87AF87BB
:10033000B88B20E030E04AE755E46D857E858F85F7
:1003400098890E940103DC01CB018BAB9CABADAB68
:10035000BEAB20E030E040E85FE36BA97CA98DA94B
:100360009EA90E947B0288232CF481E090E098AF44
:100370008FAB3FC020E03FEF4FE757E46BA97CA96C
:100380008DA99EA90E94FC0218164CF520E030E0D1
:1003900040E251E46D857E858F8598890E94010336
:1003A000DC01CB01BC01CD010E948002DC01CB014C
:1003B00098AF8FAB0FC080E991E09AAF89AF89AD5C
:1003C0009AAD0197F1F79AAF89AF8FA998AD0197D0
:1003D00098AF8FAB8FA998AD892B69F714C06BA923
:1003E0007CA98DA99EA90E948002DC01CB0198AF57
:1003F0008FAB8FA998AD9CAF8BAF8BAD9CAD0197A8
:10040000F1F79CAF8BAF82E290E02A81FC01208360
:1004100080E090E0AAEFB3E48D839E83AF83B8873A
:1004200020E030E04AE755E46D817E818F81988538
:100430000E940103DC01CB0189A79AA7ABA7BCA747
:1004400020E030E040E85FE369A57AA58BA59CA594
:100450000E947B0288232CF481E090E09EA78DA768
:100460003FC020E03FEF4FE757E469A57AA58BA591
:100470009CA50E94FC0218164CF520E030E040E2FA
:1004800051E46D817E818F8198850E940103DC019A
:10049000CB01BC01CD010E948002DC01CB019EA7F3
:1004A0008DA70FC080E991E098AB8FA78FA598A981
:1004B0000197F1F798AB8FA78DA59EA501979EA7F1
:1004C0008DA78DA59EA5892B69F714C069A57AA56E
:1004D0008BA59CA50E948002DC01CB019EA78DA765
:1004E0008DA59EA59AAB89AB89A99AA90197F1F729
:1004F0009AAB89AB17CE0E94AF0208F481E0089551
:100500000E94DB0288F09F5798F0B92F9927B751C6
:10051000B0F0E1F0660F771F881F991F1AF0BA95A7
:10052000C9F714C0B13091F00E94F502B1E008950E
:100530000C94F502672F782F8827B85F39F0B93F00
:10054000CCF3869577956795B395D9F73EF490955A
:100550008095709561957F4F8F4F9F4F0895990FAC
:100560000008550FAA0BE0E8FEEF16161706E8077D
:10057000F907C0F012161306E407F50798F0621B9E
:10058000730B840B950B39F40A2661F0232B242B73
:10059000252B21F408950A2609F4A140A6958FEF92
:1005A000811D811D089557FD9058440F551F59F026
:1005B0005F3F71F04795880F97FB991F61F09F3F50
:1005C00079F087950895121613061406551FF2CF79
:1005D0004695F1DF08C0161617061806991FF1CFC9
:1005E00086957105610508940895E894BB276627F0
:1005F0007727CB0197F908950E94AF0208F48FEF97
:1006000008950E9414030C9485030E94770338F028
:100610000E947E0320F0952311F00C946E030C943D
:10062000740311240C94F6020E94D30270F3959F78
:10063000C1F3950F50E0551F629FF001729FBB27D9
:10064000F00DB11D639FAA27F00DB11DAA1F649F75
:100650006627B00DA11D661F829F2227B00DA11D28
:10066000621F739FB00DA11D621F839FA00D611DAE
:10067000221F749F3327A00D611D231F849F600DCF
:10068000211D822F762F6A2F11249F5750409AF0F8
:10069000F1F088234AF0EE0FFF1FBB1F661F771F84
:1006A000881F91505040A9F79E3F510580F00C944F
:1006B0006E030C94F6025F3FE4F3983ED4F3869504
:1006C00077956795B795F795E7959F5FC1F7FE2BEF
:1006D000880F911D9695879597F9089597F99F67CB
:1006E00080E870E060E008959FEF80EC08950024BA
:1006F0000A941616170618060906089500240A9487
:1007000012161306140605060895092E0394000C0C
:1007100011F4882352F0BB0F40F4BF2B11F460FF9B
:1007200004C06F5F7F4F8F4F9F4F0895F894FFCFA6
:00000001FF
