S01700004763634170706C69636174696F6E312E737265635B
S11300000C9466000C9470000C9470000C947000B6
S11300100C9470000C9470000C9470000C9470009C
S11300200C9470000C9470000C9470000C9470008C
S11300300C9470000C9470000C9470000C9470007C
S11300400C9470000C9470000C9470000C9470006C
S11300500C9470000C9470000C9470000C9470005C
S11300600C9470000C9470000C9470000C9470004C
S11300700C9470000C9470000C9470000C9470003C
S11300800C9470000C9470000C9470000C9470002C
S11300900C9470000C9470000C9470000C9470001C
S11300A00C9470000C9470000C9470000C9470000C
S11300B00C9470000C9470000C9470000C947000FC
S11300C00C9470000C9470000C94700011241FBEEA
S11300D0CFEFD8E0DEBFCDBF0E9472000C94DE00EB
S11300E00C940000CF93DF93CDB7DEB781E290E0AC
S11300F020E2FC01208382E290E022E230E0F90178
S113010020812F7DFC01208382E290E020E2FC012B
S113011020830E94920082E290E0FC0110820E94FF
S1130120B800F2CFCF93DF93CDB7DEB786E490E08B
S113013028EDFC01208385E490E025E0FC01208388
S1130140000085E390E0FC018081882F90E08170BD
S11301509927892BB1F385E490E0FC01108285E3B3
S113016090E021E0FC0120830000DF91CF9108950D
S1130170CF93DF93CDB7DEB786E490E02BE8FC01A4
S1130180208385E490E025E0FC012083000085E3E2
S113019090E0FC018081882F90E081709927892B61
S11301A0B1F385E490E0FC01108285E390E021E066
S11301B0FC0120830000DF91CF910895F894FFCFD4
S9030000FC
